{
  "contractName": "EthSwap",
  "abi": [
    {
      "inputs": [
        {
          "internalType": "contract ThesisToken",
          "name": "_token",
          "type": "address"
        }
      ],
      "stateMutability": "nonpayable",
      "type": "constructor"
    },
    {
      "anonymous": false,
      "inputs": [
        {
          "indexed": false,
          "internalType": "address",
          "name": "account",
          "type": "address"
        },
        {
          "indexed": false,
          "internalType": "address",
          "name": "token",
          "type": "address"
        },
        {
          "indexed": false,
          "internalType": "uint256",
          "name": "amount",
          "type": "uint256"
        },
        {
          "indexed": false,
          "internalType": "uint256",
          "name": "rate",
          "type": "uint256"
        }
      ],
      "name": "TokenPurchased",
      "type": "event"
    },
    {
      "anonymous": false,
      "inputs": [
        {
          "indexed": false,
          "internalType": "address",
          "name": "account",
          "type": "address"
        },
        {
          "indexed": false,
          "internalType": "address",
          "name": "token",
          "type": "address"
        },
        {
          "indexed": false,
          "internalType": "uint256",
          "name": "amount",
          "type": "uint256"
        },
        {
          "indexed": false,
          "internalType": "uint256",
          "name": "rate",
          "type": "uint256"
        }
      ],
      "name": "TokensSold",
      "type": "event"
    },
    {
      "inputs": [
        {
          "internalType": "address",
          "name": "",
          "type": "address"
        }
      ],
      "name": "hasStaked",
      "outputs": [
        {
          "internalType": "bool",
          "name": "",
          "type": "bool"
        }
      ],
      "stateMutability": "view",
      "type": "function",
      "constant": true
    },
    {
      "inputs": [
        {
          "internalType": "address",
          "name": "",
          "type": "address"
        }
      ],
      "name": "isStaking",
      "outputs": [
        {
          "internalType": "bool",
          "name": "",
          "type": "bool"
        }
      ],
      "stateMutability": "view",
      "type": "function",
      "constant": true
    },
    {
      "inputs": [],
      "name": "name",
      "outputs": [
        {
          "internalType": "string",
          "name": "",
          "type": "string"
        }
      ],
      "stateMutability": "view",
      "type": "function",
      "constant": true
    },
    {
      "inputs": [],
      "name": "owner",
      "outputs": [
        {
          "internalType": "address",
          "name": "",
          "type": "address"
        }
      ],
      "stateMutability": "view",
      "type": "function",
      "constant": true
    },
    {
      "inputs": [],
      "name": "rate",
      "outputs": [
        {
          "internalType": "uint256",
          "name": "",
          "type": "uint256"
        }
      ],
      "stateMutability": "view",
      "type": "function",
      "constant": true
    },
    {
      "inputs": [
        {
          "internalType": "uint256",
          "name": "",
          "type": "uint256"
        }
      ],
      "name": "stakers",
      "outputs": [
        {
          "internalType": "address",
          "name": "",
          "type": "address"
        }
      ],
      "stateMutability": "view",
      "type": "function",
      "constant": true
    },
    {
      "inputs": [
        {
          "internalType": "address",
          "name": "",
          "type": "address"
        }
      ],
      "name": "stakingBalance",
      "outputs": [
        {
          "internalType": "uint256",
          "name": "",
          "type": "uint256"
        }
      ],
      "stateMutability": "view",
      "type": "function",
      "constant": true
    },
    {
      "inputs": [],
      "name": "token",
      "outputs": [
        {
          "internalType": "contract ThesisToken",
          "name": "",
          "type": "address"
        }
      ],
      "stateMutability": "view",
      "type": "function",
      "constant": true
    },
    {
      "inputs": [],
      "name": "buyTokens",
      "outputs": [],
      "stateMutability": "payable",
      "type": "function",
      "payable": true
    },
    {
      "inputs": [
        {
          "internalType": "uint256",
          "name": "_amount",
          "type": "uint256"
        }
      ],
      "name": "sellTokens",
      "outputs": [],
      "stateMutability": "nonpayable",
      "type": "function"
    },
    {
      "inputs": [],
      "name": "stakeTokens",
      "outputs": [],
      "stateMutability": "payable",
      "type": "function",
      "payable": true
    },
    {
      "inputs": [],
      "name": "issueToken",
      "outputs": [],
      "stateMutability": "nonpayable",
      "type": "function"
    },
    {
      "inputs": [],
      "name": "unstakeTokens",
      "outputs": [],
      "stateMutability": "payable",
      "type": "function",
      "payable": true
    }
  ],
  "bytecode": "0x60806040526040518060400160405280601181526020017f4574685377617020666f7220546f6b656e000000000000000000000000000000815250600090805190602001906200005192919062000113565b5060646002553480156200006457600080fd5b506040516200190c3803806200190c83398181016040528101906200008a9190620001da565b80600160006101000a81548173ffffffffffffffffffffffffffffffffffffffff021916908373ffffffffffffffffffffffffffffffffffffffff16021790555033600360006101000a81548173ffffffffffffffffffffffffffffffffffffffff021916908373ffffffffffffffffffffffffffffffffffffffff16021790555050620002cd565b82805462000121906200024e565b90600052602060002090601f01602090048101928262000145576000855562000191565b82601f106200016057805160ff191683800117855562000191565b8280016001018555821562000191579182015b828111156200019057825182559160200191906001019062000173565b5b509050620001a09190620001a4565b5090565b5b80821115620001bf576000816000905550600101620001a5565b5090565b600081519050620001d481620002b3565b92915050565b600060208284031215620001ed57600080fd5b6000620001fd84828501620001c3565b91505092915050565b600062000213826200022e565b9050919050565b6000620002278262000206565b9050919050565b600073ffffffffffffffffffffffffffffffffffffffff82169050919050565b600060028204905060018216806200026757607f821691505b602082108114156200027e576200027d62000284565b5b50919050565b7f4e487b7100000000000000000000000000000000000000000000000000000000600052602260045260246000fd5b620002be816200021a565b8114620002ca57600080fd5b50565b61162f80620002dd6000396000f3fe6080604052600436106100c25760003560e01c8063a1ee8c781161007f578063ce46643b11610059578063ce46643b14610249578063d0febe4c14610253578063fc0c546a1461025d578063fd5e6dd114610288576100c2565b8063a1ee8c78146101eb578063a5ce413b14610202578063c93c8f341461020c576100c2565b806306fdde03146100c75780632c4e722e146100f257806345bc78ab1461011d5780636c11bcd31461015a5780636f49712b146101835780638da5cb5b146101c0575b600080fd5b3480156100d357600080fd5b506100dc6102c5565b6040516100e9919061122e565b60405180910390f35b3480156100fe57600080fd5b50610107610353565b60405161011491906112b0565b60405180910390f35b34801561012957600080fd5b50610144600480360381019061013f9190610f39565b610359565b60405161015191906112b0565b60405180910390f35b34801561016657600080fd5b50610181600480360381019061017c9190610f8b565b610371565b005b34801561018f57600080fd5b506101aa60048036038101906101a59190610f39565b6105bc565b6040516101b791906111f8565b60405180910390f35b3480156101cc57600080fd5b506101d56105dc565b6040516101e29190611138565b60405180910390f35b3480156101f757600080fd5b50610200610602565b005b61020a610821565b005b34801561021857600080fd5b50610233600480360381019061022e9190610f39565b6109e2565b60405161024091906111f8565b60405180910390f35b610251610a02565b005b61025b610ca3565b005b34801561026957600080fd5b50610272610e80565b60405161027f9190611213565b60405180910390f35b34801561029457600080fd5b506102af60048036038101906102aa9190610f8b565b610ea6565b6040516102bc9190611138565b60405180910390f35b600080546102d29061149b565b80601f01602080910402602001604051908101604052809291908181526020018280546102fe9061149b565b801561034b5780601f106103205761010080835404028352916020019161034b565b820191906000526020600020905b81548152906001019060200180831161032e57829003601f168201915b505050505081565b60025481565b60056020528060005260406000206000915090505481565b80600160009054906101000a900473ffffffffffffffffffffffffffffffffffffffff1673ffffffffffffffffffffffffffffffffffffffff166370a08231336040518263ffffffff1660e01b81526004016103cd9190611138565b60206040518083038186803b1580156103e557600080fd5b505afa1580156103f9573d6000803e3d6000fd5b505050506040513d601f19601f8201168201806040525081019061041d9190610fb4565b101561042857600080fd5b600060025482610438919061133d565b9050803073ffffffffffffffffffffffffffffffffffffffff1631101561045e57600080fd5b600160009054906101000a900473ffffffffffffffffffffffffffffffffffffffff1673ffffffffffffffffffffffffffffffffffffffff166323b872dd3330856040518463ffffffff1660e01b81526004016104bd93929190611153565b602060405180830381600087803b1580156104d757600080fd5b505af11580156104eb573d6000803e3d6000fd5b505050506040513d601f19601f8201168201806040525081019061050f9190610f62565b503373ffffffffffffffffffffffffffffffffffffffff166108fc829081150290604051600060405180830381858888f19350505050158015610556573d6000803e3d6000fd5b507f697c42d55a5e1fed3f464ec6f38b32546a0bd368dc8068b065c67566d73f329033600160009054906101000a900473ffffffffffffffffffffffffffffffffffffffff16846002546040516105b0949392919061118a565b60405180910390a15050565b60076020528060005260406000206000915054906101000a900460ff1681565b600360009054906101000a900473ffffffffffffffffffffffffffffffffffffffff1681565b600360009054906101000a900473ffffffffffffffffffffffffffffffffffffffff1673ffffffffffffffffffffffffffffffffffffffff163373ffffffffffffffffffffffffffffffffffffffff1614610692576040517f08c379a000000000000000000000000000000000000000000000000000000000815260040161068990611250565b60405180910390fd5b60005b60048054905081101561081e576000600482815481106106de577f4e487b7100000000000000000000000000000000000000000000000000000000600052603260045260246000fd5b9060005260206000200160009054906101000a900473ffffffffffffffffffffffffffffffffffffffff1690506000600560008373ffffffffffffffffffffffffffffffffffffffff1673ffffffffffffffffffffffffffffffffffffffff168152602001908152602001600020549050600081111561080957600160009054906101000a900473ffffffffffffffffffffffffffffffffffffffff1673ffffffffffffffffffffffffffffffffffffffff1663a9059cbb83836040518363ffffffff1660e01b81526004016107b59291906111cf565b602060405180830381600087803b1580156107cf57600080fd5b505af11580156107e3573d6000803e3d6000fd5b505050506040513d601f19601f820116820180604052508101906108079190610f62565b505b50508080610816906114cd565b915050610695565b50565b6000600560003373ffffffffffffffffffffffffffffffffffffffff1673ffffffffffffffffffffffffffffffffffffffff168152602001908152602001600020549050348110156108a8576040517f08c379a000000000000000000000000000000000000000000000000000000000815260040161089f90611290565b60405180910390fd5b3373ffffffffffffffffffffffffffffffffffffffff166108fc349081150290604051600060405180830381858888f193505050501580156108ee573d6000803e3d6000fd5b5034816108fb91906113c8565b600560003373ffffffffffffffffffffffffffffffffffffffff1673ffffffffffffffffffffffffffffffffffffffff168152602001908152602001600020819055506000600560003373ffffffffffffffffffffffffffffffffffffffff1673ffffffffffffffffffffffffffffffffffffffff1681526020019081526020016000205414156109df576000600760003373ffffffffffffffffffffffffffffffffffffffff1673ffffffffffffffffffffffffffffffffffffffff16815260200190815260200160002060006101000a81548160ff0219169083151502179055505b50565b60066020528060005260406000206000915054906101000a900460ff1681565b60003411610a45576040517f08c379a0000000000000000000000000000000000000000000000000000000008152600401610a3c90611270565b60405180910390fd5b600360009054906101000a900473ffffffffffffffffffffffffffffffffffffffff1673ffffffffffffffffffffffffffffffffffffffff166108fc349081150290604051600060405180830381858888f19350505050158015610aad573d6000803e3d6000fd5b5034600560003373ffffffffffffffffffffffffffffffffffffffff1673ffffffffffffffffffffffffffffffffffffffff16815260200190815260200160002054610af991906112e7565b600560003373ffffffffffffffffffffffffffffffffffffffff1673ffffffffffffffffffffffffffffffffffffffff16815260200190815260200160002081905550600660003373ffffffffffffffffffffffffffffffffffffffff1673ffffffffffffffffffffffffffffffffffffffff16815260200190815260200160002060009054906101000a900460ff16610bf1576004339080600181540180825580915050600190039060005260206000200160009091909190916101000a81548173ffffffffffffffffffffffffffffffffffffffff021916908373ffffffffffffffffffffffffffffffffffffffff1602179055505b6001600660003373ffffffffffffffffffffffffffffffffffffffff1673ffffffffffffffffffffffffffffffffffffffff16815260200190815260200160002060006101000a81548160ff0219169083151502179055506001600760003373ffffffffffffffffffffffffffffffffffffffff1673ffffffffffffffffffffffffffffffffffffffff16815260200190815260200160002060006101000a81548160ff021916908315150217905550565b600060025434610cb3919061136e565b905080600160009054906101000a900473ffffffffffffffffffffffffffffffffffffffff1673ffffffffffffffffffffffffffffffffffffffff166370a08231306040518263ffffffff1660e01b8152600401610d119190611138565b60206040518083038186803b158015610d2957600080fd5b505afa158015610d3d573d6000803e3d6000fd5b505050506040513d601f19601f82011682018060405250810190610d619190610fb4565b1015610d6c57600080fd5b600160009054906101000a900473ffffffffffffffffffffffffffffffffffffffff1673ffffffffffffffffffffffffffffffffffffffff1663a9059cbb33836040518363ffffffff1660e01b8152600401610dc99291906111cf565b602060405180830381600087803b158015610de357600080fd5b505af1158015610df7573d6000803e3d6000fd5b505050506040513d601f19601f82011682018060405250810190610e1b9190610f62565b507f8daf503382665d950e449b86172be5222275c90f4ddf69c29fdaa8237a562a6d33600160009054906101000a900473ffffffffffffffffffffffffffffffffffffffff1683600254604051610e75949392919061118a565b60405180910390a150565b600160009054906101000a900473ffffffffffffffffffffffffffffffffffffffff1681565b60048181548110610eb657600080fd5b906000526020600020016000915054906101000a900473ffffffffffffffffffffffffffffffffffffffff1681565b600081359050610ef4816115b4565b92915050565b600081519050610f09816115cb565b92915050565b600081359050610f1e816115e2565b92915050565b600081519050610f33816115e2565b92915050565b600060208284031215610f4b57600080fd5b6000610f5984828501610ee5565b91505092915050565b600060208284031215610f7457600080fd5b6000610f8284828501610efa565b91505092915050565b600060208284031215610f9d57600080fd5b6000610fab84828501610f0f565b91505092915050565b600060208284031215610fc657600080fd5b6000610fd484828501610f24565b91505092915050565b610fe6816113fc565b82525050565b610ff58161140e565b82525050565b61100481611444565b82525050565b6000611015826112cb565b61101f81856112d6565b935061102f818560208601611468565b611038816115a3565b840191505092915050565b60006110506014836112d6565b91507f63616c6c6572206d757374206265206f776e65720000000000000000000000006000830152602082019050919050565b60006110906012836112d6565b91507f616d6f756e742063616e6e6f74206265203000000000000000000000000000006000830152602082019050919050565b60006110d06023836112d6565b91507f43616e6e6f7420756e7374616b65206d6f726520657468207468616e2073746160008301527f6b656400000000000000000000000000000000000000000000000000000000006020830152604082019050919050565b6111328161143a565b82525050565b600060208201905061114d6000830184610fdd565b92915050565b60006060820190506111686000830186610fdd565b6111756020830185610fdd565b6111826040830184611129565b949350505050565b600060808201905061119f6000830187610fdd565b6111ac6020830186610fdd565b6111b96040830185611129565b6111c66060830184611129565b95945050505050565b60006040820190506111e46000830185610fdd565b6111f16020830184611129565b9392505050565b600060208201905061120d6000830184610fec565b92915050565b60006020820190506112286000830184610ffb565b92915050565b60006020820190508181036000830152611248818461100a565b905092915050565b6000602082019050818103600083015261126981611043565b9050919050565b6000602082019050818103600083015261128981611083565b9050919050565b600060208201905081810360008301526112a9816110c3565b9050919050565b60006020820190506112c56000830184611129565b92915050565b600081519050919050565b600082825260208201905092915050565b60006112f28261143a565b91506112fd8361143a565b9250827fffffffffffffffffffffffffffffffffffffffffffffffffffffffffffffffff0382111561133257611331611516565b5b828201905092915050565b60006113488261143a565b91506113538361143a565b92508261136357611362611545565b5b828204905092915050565b60006113798261143a565b91506113848361143a565b9250817fffffffffffffffffffffffffffffffffffffffffffffffffffffffffffffffff04831182151516156113bd576113bc611516565b5b828202905092915050565b60006113d38261143a565b91506113de8361143a565b9250828210156113f1576113f0611516565b5b828203905092915050565b60006114078261141a565b9050919050565b60008115159050919050565b600073ffffffffffffffffffffffffffffffffffffffff82169050919050565b6000819050919050565b600061144f82611456565b9050919050565b60006114618261141a565b9050919050565b60005b8381101561148657808201518184015260208101905061146b565b83811115611495576000848401525b50505050565b600060028204905060018216806114b357607f821691505b602082108114156114c7576114c6611574565b5b50919050565b60006114d88261143a565b91507fffffffffffffffffffffffffffffffffffffffffffffffffffffffffffffffff82141561150b5761150a611516565b5b600182019050919050565b7f4e487b7100000000000000000000000000000000000000000000000000000000600052601160045260246000fd5b7f4e487b7100000000000000000000000000000000000000000000000000000000600052601260045260246000fd5b7f4e487b7100000000000000000000000000000000000000000000000000000000600052602260045260246000fd5b6000601f19601f8301169050919050565b6115bd816113fc565b81146115c857600080fd5b50565b6115d48161140e565b81146115df57600080fd5b50565b6115eb8161143a565b81146115f657600080fd5b5056fea2646970667358221220fa8160640c2a63f765962183d117d0f31ec772a6f2b0040ac8791ef7e9949acd64736f6c63430008000033",
  "immutableReferences": {},
  "source": "// SPDX-License-Identifier: MIT\r\n\r\npragma solidity ^0.8.0;\r\n\r\nimport \"./ThesisToken.sol\";\r\n\r\ncontract EthSwap {\r\n    string public name = \"EthSwap for Token\";\r\n    ThesisToken public token;\r\n    uint public rate = 100;\r\n\r\n    address public owner;\r\n\r\n    // address of staking addresses;\r\n    address[] public stakers;\r\n\r\n    // the stalking balance for a specific User\r\n    mapping(address => uint) public stakingBalance;\r\n\r\n    // check if the address has Staked\r\n    mapping(address => bool) public hasStaked;\r\n\r\n    mapping(address => bool) public isStaking;\r\n\r\n    event TokenPurchased(\r\n        address account,\r\n        address token,\r\n        uint amount,\r\n        uint rate\r\n    );\r\n\r\n    event TokensSold(\r\n        address account,\r\n        address token,\r\n        uint amount,\r\n        uint rate\r\n    );\r\n\r\n    // if variable in constructor -> then it needs to be passed in the migration\r\n    constructor(ThesisToken _token) public {\r\n        token = _token;\r\n        owner = msg.sender;\r\n    }\r\n\r\n    // payable to send ether\r\n    function buyTokens() public payable {\r\n        // redemption rate = # of tokens they receive for 1 ether\r\n        // Amount of Ethereum * Redemption rate\r\n        // Calculate the number of tokens to buy -> msg.value is the amount of ether that is sended\r\n        uint tokenAmount = msg.value * rate;\r\n\r\n        // integrate a require -> check if ethSwap balance of thesis tokens is enough -> this is the address of the ethSwap Contract\r\n        // require ethSwap have enough tokens\r\n        require(\r\n            token.balanceOf(address(this)) >= tokenAmount\r\n        );\r\n\r\n        token.transfer(msg.sender, tokenAmount);\r\n\r\n        // trigger Event that tokens were purchased\r\n        emit TokenPurchased(msg.sender, address(token), tokenAmount, rate);\r\n    }\r\n\r\n    function sellTokens(uint _amount) public {\r\n        // User can't sell more tokens than they have\r\n        require(token.balanceOf(msg.sender) >= _amount);\r\n\r\n        // calculate the amount of Ether\r\n        uint etherAmount = _amount / rate;\r\n\r\n        // require that EthSwap has enough Ether\r\n        require(address(this).balance >= etherAmount);\r\n\r\n        // Perfom sale -> transfer Thesis Tokens back to EthSwap -> again use the address of the contract -> this\r\n        // we can not use the simple transfer function on an ERC-20 Token\r\n        // instead we have to use the transferFrom function -> to allow transfer from an address to EthSwap\r\n        token.transferFrom(msg.sender, address(this), _amount);\r\n        // this will also trigger approve function of the ERC-20 Token -> needs to be called inside a test\r\n\r\n        // -> we use transfer for native Ethereum\r\n        payable(msg.sender).transfer(etherAmount);\r\n\r\n        // emit an Event\r\n        emit TokensSold(msg.sender, address(token), _amount, rate);\r\n    }\r\n\r\n    // 1. Stakes Tokens (Deposit)\r\n    function stakeTokens() payable public {\r\n        // require amount to stake is greater than 0 \r\n        require(msg.value > 0, \"amount cannot be 0\");\r\n\r\n        //msg.sender.approve(msg.sender, msg.value);\r\n        // Transfer eth to this (tokenfarm) contract for staking\r\n        payable(owner).transfer(msg.value);\r\n\r\n        // Update staking balance\r\n        stakingBalance[msg.sender] =  stakingBalance[msg.sender] + msg.value;\r\n\r\n        // Add user to stakers array if they haven't staked already\r\n        if(!hasStaked[msg.sender]) {\r\n            // the stakers array should only contain addresses once\r\n            stakers.push(msg.sender);\r\n        }\r\n\r\n        // update staking status\r\n        hasStaked[msg.sender] = true;\r\n        isStaking[msg.sender] = true;\r\n    }\r\n    // 2. Issuing Tokens -> reward (triggered only by owner)\r\n    function issueToken() public {\r\n        // this functions should only be triggered by the owner of the smart contract\r\n        require(msg.sender == owner, \"caller must be owner\");\r\n\r\n        // loop through stakers array\r\n        for(uint i=0; i < stakers.length; i++) {\r\n            address recipient = stakers[i];\r\n            // for each staker get the balance of the staked thesis Tokens -> stakingBalance\r\n            uint balance =  stakingBalance[recipient];\r\n            if(balance > 0 ) {\r\n                // send them the same amount of thesis Tokens\r\n            token.transfer(recipient, balance);\r\n            }\r\n        }\r\n    }\r\n\r\n    // 3. Unstaking Tokens (Withdraw) -> allow investor to remove tokens from the application -> from the tokaneFarm\r\n    function unstakeTokens() payable public {\r\n\r\n        // Fetch staking balance\r\n        //uint balance = stakingBalance[msg.sender]; // here ERROR? Maybe 0?\r\n        //uint balance = 1000000000000000000;\r\n        // require amount greater than 0\r\n        uint balance = stakingBalance[msg.sender];\r\n        require(balance >= msg.value , \"Cannot unstake more eth than staked\");\r\n\r\n        // transfer eth to this contract for staking\r\n        payable(msg.sender).transfer(msg.value);\r\n\r\n        // reset the staking balance\r\n        stakingBalance[msg.sender] = balance - msg.value;\r\n\r\n        if(stakingBalance[msg.sender] == 0) {\r\n            // update staking status\r\n            isStaking[msg.sender] = false;\r\n        } \r\n    }\r\n}",
  "sourcePath": "C:\\uni\\THESIS(Master)\\Project\\src\\contracts\\EthSwap.sol",
  "compiler": {
    "name": "solc",
    "version": "0.8.0+commit.c7dfd78e.Emscripten.clang"
  },
  "schemaVersion": "3.4.3",
  "updatedAt": "2021-10-19T19:56:19.642Z",
  "networkType": "ethereum",
  "devdoc": {
    "kind": "dev",
    "methods": {},
    "version": 1
  },
  "userdoc": {
    "kind": "user",
    "methods": {},
    "version": 1
  }
}