{
  "contractName": "EthSwap",
  "abi": [
    {
      "inputs": [
        {
          "internalType": "contract ThesisToken",
          "name": "_token",
          "type": "address"
        }
      ],
      "stateMutability": "nonpayable",
      "type": "constructor"
    },
    {
      "anonymous": false,
      "inputs": [
        {
          "indexed": false,
          "internalType": "address",
          "name": "account",
          "type": "address"
        },
        {
          "indexed": false,
          "internalType": "address",
          "name": "token",
          "type": "address"
        },
        {
          "indexed": false,
          "internalType": "uint256",
          "name": "amount",
          "type": "uint256"
        },
        {
          "indexed": false,
          "internalType": "uint256",
          "name": "rate",
          "type": "uint256"
        }
      ],
      "name": "TokenPurchased",
      "type": "event"
    },
    {
      "anonymous": false,
      "inputs": [
        {
          "indexed": false,
          "internalType": "address",
          "name": "account",
          "type": "address"
        },
        {
          "indexed": false,
          "internalType": "address",
          "name": "token",
          "type": "address"
        },
        {
          "indexed": false,
          "internalType": "uint256",
          "name": "amount",
          "type": "uint256"
        },
        {
          "indexed": false,
          "internalType": "uint256",
          "name": "rate",
          "type": "uint256"
        }
      ],
      "name": "TokensSold",
      "type": "event"
    },
    {
      "inputs": [
        {
          "internalType": "address",
          "name": "",
          "type": "address"
        }
      ],
      "name": "hasStaked",
      "outputs": [
        {
          "internalType": "bool",
          "name": "",
          "type": "bool"
        }
      ],
      "stateMutability": "view",
      "type": "function",
      "constant": true
    },
    {
      "inputs": [
        {
          "internalType": "address",
          "name": "",
          "type": "address"
        }
      ],
      "name": "isStaking",
      "outputs": [
        {
          "internalType": "bool",
          "name": "",
          "type": "bool"
        }
      ],
      "stateMutability": "view",
      "type": "function",
      "constant": true
    },
    {
      "inputs": [],
      "name": "name",
      "outputs": [
        {
          "internalType": "string",
          "name": "",
          "type": "string"
        }
      ],
      "stateMutability": "view",
      "type": "function",
      "constant": true
    },
    {
      "inputs": [],
      "name": "owner",
      "outputs": [
        {
          "internalType": "address",
          "name": "",
          "type": "address"
        }
      ],
      "stateMutability": "view",
      "type": "function",
      "constant": true
    },
    {
      "inputs": [],
      "name": "rate",
      "outputs": [
        {
          "internalType": "uint256",
          "name": "",
          "type": "uint256"
        }
      ],
      "stateMutability": "view",
      "type": "function",
      "constant": true
    },
    {
      "inputs": [
        {
          "internalType": "uint256",
          "name": "",
          "type": "uint256"
        }
      ],
      "name": "stakers",
      "outputs": [
        {
          "internalType": "address",
          "name": "",
          "type": "address"
        }
      ],
      "stateMutability": "view",
      "type": "function",
      "constant": true
    },
    {
      "inputs": [
        {
          "internalType": "address",
          "name": "",
          "type": "address"
        }
      ],
      "name": "stakingBalance",
      "outputs": [
        {
          "internalType": "uint256",
          "name": "",
          "type": "uint256"
        }
      ],
      "stateMutability": "view",
      "type": "function",
      "constant": true
    },
    {
      "inputs": [],
      "name": "token",
      "outputs": [
        {
          "internalType": "contract ThesisToken",
          "name": "",
          "type": "address"
        }
      ],
      "stateMutability": "view",
      "type": "function",
      "constant": true
    },
    {
      "inputs": [],
      "name": "buyTokens",
      "outputs": [],
      "stateMutability": "payable",
      "type": "function",
      "payable": true
    },
    {
      "inputs": [
        {
          "internalType": "uint256",
          "name": "_amount",
          "type": "uint256"
        }
      ],
      "name": "sellTokens",
      "outputs": [],
      "stateMutability": "nonpayable",
      "type": "function"
    },
    {
      "inputs": [],
      "name": "stakeTokens",
      "outputs": [],
      "stateMutability": "payable",
      "type": "function",
      "payable": true
    },
    {
      "inputs": [],
      "name": "issueToken",
      "outputs": [],
      "stateMutability": "nonpayable",
      "type": "function"
    },
    {
      "inputs": [],
      "name": "unstakeTokens",
      "outputs": [],
      "stateMutability": "payable",
      "type": "function",
      "payable": true
    }
  ],
  "bytecode": "0x60806040526040518060400160405280601181526020017f4574685377617020666f7220546f6b656e000000000000000000000000000000815250600090805190602001906200005192919062000113565b5060646002553480156200006457600080fd5b50604051620018d8380380620018d883398181016040528101906200008a919062000241565b80600160006101000a81548173ffffffffffffffffffffffffffffffffffffffff021916908373ffffffffffffffffffffffffffffffffffffffff16021790555033600360006101000a81548173ffffffffffffffffffffffffffffffffffffffff021916908373ffffffffffffffffffffffffffffffffffffffff16021790555050620002d8565b8280546200012190620002a2565b90600052602060002090601f01602090048101928262000145576000855562000191565b82601f106200016057805160ff191683800117855562000191565b8280016001018555821562000191579182015b828111156200019057825182559160200191906001019062000173565b5b509050620001a09190620001a4565b5090565b5b80821115620001bf576000816000905550600101620001a5565b5090565b600080fd5b600073ffffffffffffffffffffffffffffffffffffffff82169050919050565b6000620001f582620001c8565b9050919050565b60006200020982620001e8565b9050919050565b6200021b81620001fc565b81146200022757600080fd5b50565b6000815190506200023b8162000210565b92915050565b6000602082840312156200025a5762000259620001c3565b5b60006200026a848285016200022a565b91505092915050565b7f4e487b7100000000000000000000000000000000000000000000000000000000600052602260045260246000fd5b60006002820490506001821680620002bb57607f821691505b60208210811415620002d257620002d162000273565b5b50919050565b6115f080620002e86000396000f3fe6080604052600436106100c25760003560e01c8063a1ee8c781161007f578063ce46643b11610059578063ce46643b14610249578063d0febe4c14610253578063fc0c546a1461025d578063fd5e6dd114610288576100c2565b8063a1ee8c78146101eb578063a5ce413b14610202578063c93c8f341461020c576100c2565b806306fdde03146100c75780632c4e722e146100f257806345bc78ab1461011d5780636c11bcd31461015a5780636f49712b146101835780638da5cb5b146101c0575b600080fd5b3480156100d357600080fd5b506100dc6102c5565b6040516100e99190610f05565b60405180910390f35b3480156100fe57600080fd5b50610107610353565b6040516101149190610f40565b60405180910390f35b34801561012957600080fd5b50610144600480360381019061013f9190610fbe565b610359565b6040516101519190610f40565b60405180910390f35b34801561016657600080fd5b50610181600480360381019061017c9190611017565b610371565b005b34801561018f57600080fd5b506101aa60048036038101906101a59190610fbe565b6105bc565b6040516101b7919061105f565b60405180910390f35b3480156101cc57600080fd5b506101d56105dc565b6040516101e29190611089565b60405180910390f35b3480156101f757600080fd5b50610200610602565b005b61020a6107fb565b005b34801561021857600080fd5b50610233600480360381019061022e9190610fbe565b610969565b604051610240919061105f565b60405180910390f35b610251610989565b005b61025b610c2a565b005b34801561026957600080fd5b50610272610e07565b60405161027f9190611103565b60405180910390f35b34801561029457600080fd5b506102af60048036038101906102aa9190611017565b610e2d565b6040516102bc9190611089565b60405180910390f35b600080546102d29061114d565b80601f01602080910402602001604051908101604052809291908181526020018280546102fe9061114d565b801561034b5780601f106103205761010080835404028352916020019161034b565b820191906000526020600020905b81548152906001019060200180831161032e57829003601f168201915b505050505081565b60025481565b60056020528060005260406000206000915090505481565b80600160009054906101000a900473ffffffffffffffffffffffffffffffffffffffff1673ffffffffffffffffffffffffffffffffffffffff166370a08231336040518263ffffffff1660e01b81526004016103cd9190611089565b60206040518083038186803b1580156103e557600080fd5b505afa1580156103f9573d6000803e3d6000fd5b505050506040513d601f19601f8201168201806040525081019061041d9190611194565b101561042857600080fd5b600060025482610438919061121f565b9050803073ffffffffffffffffffffffffffffffffffffffff1631101561045e57600080fd5b600160009054906101000a900473ffffffffffffffffffffffffffffffffffffffff1673ffffffffffffffffffffffffffffffffffffffff166323b872dd3330856040518463ffffffff1660e01b81526004016104bd93929190611250565b602060405180830381600087803b1580156104d757600080fd5b505af11580156104eb573d6000803e3d6000fd5b505050506040513d601f19601f8201168201806040525081019061050f91906112b3565b503373ffffffffffffffffffffffffffffffffffffffff166108fc829081150290604051600060405180830381858888f19350505050158015610556573d6000803e3d6000fd5b507f697c42d55a5e1fed3f464ec6f38b32546a0bd368dc8068b065c67566d73f329033600160009054906101000a900473ffffffffffffffffffffffffffffffffffffffff16846002546040516105b094939291906112e0565b60405180910390a15050565b60076020528060005260406000206000915054906101000a900460ff1681565b600360009054906101000a900473ffffffffffffffffffffffffffffffffffffffff1681565b600360009054906101000a900473ffffffffffffffffffffffffffffffffffffffff1673ffffffffffffffffffffffffffffffffffffffff163373ffffffffffffffffffffffffffffffffffffffff1614610692576040517f08c379a000000000000000000000000000000000000000000000000000000000815260040161068990611371565b60405180910390fd5b60005b6004805490508110156107f8576000600482815481106106b8576106b7611391565b5b9060005260206000200160009054906101000a900473ffffffffffffffffffffffffffffffffffffffff1690506000600560008373ffffffffffffffffffffffffffffffffffffffff1673ffffffffffffffffffffffffffffffffffffffff16815260200190815260200160002054905060008111156107e357600160009054906101000a900473ffffffffffffffffffffffffffffffffffffffff1673ffffffffffffffffffffffffffffffffffffffff1663a9059cbb83836040518363ffffffff1660e01b815260040161078f9291906113c0565b602060405180830381600087803b1580156107a957600080fd5b505af11580156107bd573d6000803e3d6000fd5b505050506040513d601f19601f820116820180604052508101906107e191906112b3565b505b505080806107f0906113e9565b915050610695565b50565b6000600560003373ffffffffffffffffffffffffffffffffffffffff1673ffffffffffffffffffffffffffffffffffffffff16815260200190815260200160002054905060008111610882576040517f08c379a00000000000000000000000000000000000000000000000000000000081526004016108799061147e565b60405180910390fd5b3373ffffffffffffffffffffffffffffffffffffffff166108fc829081150290604051600060405180830381858888f193505050501580156108c8573d6000803e3d6000fd5b506000600560003373ffffffffffffffffffffffffffffffffffffffff1673ffffffffffffffffffffffffffffffffffffffff168152602001908152602001600020819055506000600760003373ffffffffffffffffffffffffffffffffffffffff1673ffffffffffffffffffffffffffffffffffffffff16815260200190815260200160002060006101000a81548160ff02191690831515021790555050565b60066020528060005260406000206000915054906101000a900460ff1681565b600034116109cc576040517f08c379a00000000000000000000000000000000000000000000000000000000081526004016109c3906114ea565b60405180910390fd5b600360009054906101000a900473ffffffffffffffffffffffffffffffffffffffff1673ffffffffffffffffffffffffffffffffffffffff166108fc349081150290604051600060405180830381858888f19350505050158015610a34573d6000803e3d6000fd5b5034600560003373ffffffffffffffffffffffffffffffffffffffff1673ffffffffffffffffffffffffffffffffffffffff16815260200190815260200160002054610a80919061150a565b600560003373ffffffffffffffffffffffffffffffffffffffff1673ffffffffffffffffffffffffffffffffffffffff16815260200190815260200160002081905550600660003373ffffffffffffffffffffffffffffffffffffffff1673ffffffffffffffffffffffffffffffffffffffff16815260200190815260200160002060009054906101000a900460ff16610b78576004339080600181540180825580915050600190039060005260206000200160009091909190916101000a81548173ffffffffffffffffffffffffffffffffffffffff021916908373ffffffffffffffffffffffffffffffffffffffff1602179055505b6001600660003373ffffffffffffffffffffffffffffffffffffffff1673ffffffffffffffffffffffffffffffffffffffff16815260200190815260200160002060006101000a81548160ff0219169083151502179055506001600760003373ffffffffffffffffffffffffffffffffffffffff1673ffffffffffffffffffffffffffffffffffffffff16815260200190815260200160002060006101000a81548160ff021916908315150217905550565b600060025434610c3a9190611560565b905080600160009054906101000a900473ffffffffffffffffffffffffffffffffffffffff1673ffffffffffffffffffffffffffffffffffffffff166370a08231306040518263ffffffff1660e01b8152600401610c989190611089565b60206040518083038186803b158015610cb057600080fd5b505afa158015610cc4573d6000803e3d6000fd5b505050506040513d601f19601f82011682018060405250810190610ce89190611194565b1015610cf357600080fd5b600160009054906101000a900473ffffffffffffffffffffffffffffffffffffffff1673ffffffffffffffffffffffffffffffffffffffff1663a9059cbb33836040518363ffffffff1660e01b8152600401610d509291906113c0565b602060405180830381600087803b158015610d6a57600080fd5b505af1158015610d7e573d6000803e3d6000fd5b505050506040513d601f19601f82011682018060405250810190610da291906112b3565b507f8daf503382665d950e449b86172be5222275c90f4ddf69c29fdaa8237a562a6d33600160009054906101000a900473ffffffffffffffffffffffffffffffffffffffff1683600254604051610dfc94939291906112e0565b60405180910390a150565b600160009054906101000a900473ffffffffffffffffffffffffffffffffffffffff1681565b60048181548110610e3d57600080fd5b906000526020600020016000915054906101000a900473ffffffffffffffffffffffffffffffffffffffff1681565b600081519050919050565b600082825260208201905092915050565b60005b83811015610ea6578082015181840152602081019050610e8b565b83811115610eb5576000848401525b50505050565b6000601f19601f8301169050919050565b6000610ed782610e6c565b610ee18185610e77565b9350610ef1818560208601610e88565b610efa81610ebb565b840191505092915050565b60006020820190508181036000830152610f1f8184610ecc565b905092915050565b6000819050919050565b610f3a81610f27565b82525050565b6000602082019050610f556000830184610f31565b92915050565b600080fd5b600073ffffffffffffffffffffffffffffffffffffffff82169050919050565b6000610f8b82610f60565b9050919050565b610f9b81610f80565b8114610fa657600080fd5b50565b600081359050610fb881610f92565b92915050565b600060208284031215610fd457610fd3610f5b565b5b6000610fe284828501610fa9565b91505092915050565b610ff481610f27565b8114610fff57600080fd5b50565b60008135905061101181610feb565b92915050565b60006020828403121561102d5761102c610f5b565b5b600061103b84828501611002565b91505092915050565b60008115159050919050565b61105981611044565b82525050565b60006020820190506110746000830184611050565b92915050565b61108381610f80565b82525050565b600060208201905061109e600083018461107a565b92915050565b6000819050919050565b60006110c96110c46110bf84610f60565b6110a4565b610f60565b9050919050565b60006110db826110ae565b9050919050565b60006110ed826110d0565b9050919050565b6110fd816110e2565b82525050565b600060208201905061111860008301846110f4565b92915050565b7f4e487b7100000000000000000000000000000000000000000000000000000000600052602260045260246000fd5b6000600282049050600182168061116557607f821691505b602082108114156111795761117861111e565b5b50919050565b60008151905061118e81610feb565b92915050565b6000602082840312156111aa576111a9610f5b565b5b60006111b88482850161117f565b91505092915050565b7f4e487b7100000000000000000000000000000000000000000000000000000000600052601260045260246000fd5b7f4e487b7100000000000000000000000000000000000000000000000000000000600052601160045260246000fd5b600061122a82610f27565b915061123583610f27565b925082611245576112446111c1565b5b828204905092915050565b6000606082019050611265600083018661107a565b611272602083018561107a565b61127f6040830184610f31565b949350505050565b61129081611044565b811461129b57600080fd5b50565b6000815190506112ad81611287565b92915050565b6000602082840312156112c9576112c8610f5b565b5b60006112d78482850161129e565b91505092915050565b60006080820190506112f5600083018761107a565b611302602083018661107a565b61130f6040830185610f31565b61131c6060830184610f31565b95945050505050565b7f63616c6c6572206d757374206265206f776e6572000000000000000000000000600082015250565b600061135b601483610e77565b915061136682611325565b602082019050919050565b6000602082019050818103600083015261138a8161134e565b9050919050565b7f4e487b7100000000000000000000000000000000000000000000000000000000600052603260045260246000fd5b60006040820190506113d5600083018561107a565b6113e26020830184610f31565b9392505050565b60006113f482610f27565b91507fffffffffffffffffffffffffffffffffffffffffffffffffffffffffffffffff821415611427576114266111f0565b5b600182019050919050565b7f7374616b696e672062616c616e63652063616e6e6f7420626520300000000000600082015250565b6000611468601b83610e77565b915061147382611432565b602082019050919050565b600060208201905081810360008301526114978161145b565b9050919050565b7f616d6f756e742063616e6e6f7420626520300000000000000000000000000000600082015250565b60006114d4601283610e77565b91506114df8261149e565b602082019050919050565b60006020820190508181036000830152611503816114c7565b9050919050565b600061151582610f27565b915061152083610f27565b9250827fffffffffffffffffffffffffffffffffffffffffffffffffffffffffffffffff03821115611555576115546111f0565b5b828201905092915050565b600061156b82610f27565b915061157683610f27565b9250817fffffffffffffffffffffffffffffffffffffffffffffffffffffffffffffffff04831182151516156115af576115ae6111f0565b5b82820290509291505056fea26469706673582212208973a5b4b3afd29da47a36018bb84cc433da0f3f86bcf345027b52a3e8ead19c64736f6c63430008090033",
  "immutableReferences": {},
  "source": "// SPDX-License-Identifier: MIT\r\n\r\npragma solidity ^0.8.0;\r\n\r\nimport \"./ThesisToken.sol\";\r\n\r\ncontract EthSwap {\r\n    string public name = \"EthSwap for Token\";\r\n    ThesisToken public token;\r\n    uint public rate = 100;\r\n\r\n    address public owner;\r\n\r\n    // address of staking addresses;\r\n    address[] public stakers;\r\n\r\n    // the stalking balance for a specific User\r\n    mapping(address => uint) public stakingBalance;\r\n\r\n    // check if the address has Staked\r\n    mapping(address => bool) public hasStaked;\r\n\r\n    mapping(address => bool) public isStaking;\r\n\r\n    event TokenPurchased(\r\n        address account,\r\n        address token,\r\n        uint amount,\r\n        uint rate\r\n    );\r\n\r\n    event TokensSold(\r\n        address account,\r\n        address token,\r\n        uint amount,\r\n        uint rate\r\n    );\r\n\r\n    // if variable in constructor -> then it needs to be passed in the migration\r\n    constructor(ThesisToken _token) public {\r\n        token = _token;\r\n        owner = msg.sender;\r\n    }\r\n\r\n    // payable to send ether\r\n    function buyTokens() public payable {\r\n        // redemption rate = # of tokens they receive for 1 ether\r\n        // Amount of Ethereum * Redemption rate\r\n        // Calculate the number of tokens to buy -> msg.value is the amount of ether that is sended\r\n        uint tokenAmount = msg.value * rate;\r\n\r\n        // integrate a require -> check if ethSwap balance of thesis tokens is enough -> this is the address of the ethSwap Contract\r\n        // require ethSwap have enough tokens\r\n        require(\r\n            token.balanceOf(address(this)) >= tokenAmount\r\n        );\r\n\r\n        token.transfer(msg.sender, tokenAmount);\r\n\r\n        // trigger Event that tokens were purchased\r\n        emit TokenPurchased(msg.sender, address(token), tokenAmount, rate);\r\n    }\r\n\r\n    function sellTokens(uint _amount) public {\r\n        // User can't sell more tokens than they have\r\n        require(token.balanceOf(msg.sender) >= _amount);\r\n\r\n        // calculate the amount of Ether\r\n        uint etherAmount = _amount / rate;\r\n\r\n        // require that EthSwap has enough Ether\r\n        require(address(this).balance >= etherAmount);\r\n\r\n        // Perfom sale -> transfer Thesis Tokens back to EthSwap -> again use the address of the contract -> this\r\n        // we can not use the simple transfer function on an ERC-20 Token\r\n        // instead we have to use the transferFrom function -> to allow transfer from an address to EthSwap\r\n        token.transferFrom(msg.sender, address(this), _amount);\r\n        // this will also trigger approve function of the ERC-20 Token -> needs to be called inside a test\r\n\r\n        // -> we use transfer for native Ethereum\r\n        payable(msg.sender).transfer(etherAmount);\r\n\r\n        // emit an Event\r\n        emit TokensSold(msg.sender, address(token), _amount, rate);\r\n    }\r\n\r\n    // 1. Stakes Tokens (Deposit)\r\n    function stakeTokens() payable public {\r\n        // require amount to stake is greater than 0 \r\n        require(msg.value > 0, \"amount cannot be 0\");\r\n\r\n        //msg.sender.approve(msg.sender, msg.value);\r\n        // Transfer eth to this (tokenfarm) contract for staking\r\n        payable(owner).transfer(msg.value);\r\n\r\n        // Update staking balance\r\n        stakingBalance[msg.sender] =  stakingBalance[msg.sender] + msg.value;\r\n\r\n        // Add user to stakers array if they haven't staked already\r\n        if(!hasStaked[msg.sender]) {\r\n            // the stakers array should only contain addresses once\r\n            stakers.push(msg.sender);\r\n        }\r\n\r\n        // update staking status\r\n        hasStaked[msg.sender] = true;\r\n        isStaking[msg.sender] = true;\r\n    }\r\n    // 2. Issuing Tokens -> reward (triggered only by owner)\r\n    function issueToken() public {\r\n        // this functions should only be triggered by the owner of the smart contract\r\n        require(msg.sender == owner, \"caller must be owner\");\r\n\r\n        // loop through stakers array\r\n        for(uint i=0; i < stakers.length; i++) {\r\n            address recipient = stakers[i];\r\n            // for each staker get the balance of the staked thesis Tokens -> stakingBalance\r\n            uint balance =  stakingBalance[recipient];\r\n            if(balance > 0 ) {\r\n                // send them the same amount of thesis Tokens\r\n            token.transfer(recipient, balance);\r\n            }\r\n        }\r\n    }\r\n\r\n    // 3. Unstaking Tokens (Withdraw) -> allow investor to remove tokens from the application -> from the tokaneFarm\r\n    function unstakeTokens() payable public {\r\n\r\n        // Fetch staking balance\r\n        uint balance = stakingBalance[msg.sender];\r\n        // require amount greater than 0\r\n        require(balance > 0 , \"staking balance cannot be 0\");\r\n\r\n        // transfer eth to this contract for staking\r\n        payable(msg.sender).transfer(balance);\r\n\r\n        // reset the staking balance\r\n        stakingBalance[msg.sender] = 0;\r\n\r\n        // update staking status\r\n        isStaking[msg.sender] = false;\r\n    }\r\n}",
  "sourcePath": "C:\\uni\\THESIS(Master)\\Project\\src\\contracts\\EthSwap.sol",
  "compiler": {
    "name": "solc",
    "version": "0.8.9+commit.e5eed63a.Emscripten.clang"
  },
  "schemaVersion": "3.4.3",
  "updatedAt": "2021-10-18T19:10:35.393Z",
  "networkType": "ethereum",
  "devdoc": {
    "kind": "dev",
    "methods": {},
    "version": 1
  },
  "userdoc": {
    "kind": "user",
    "methods": {},
    "version": 1
  }
}