{
  "contractName": "EthSwap",
  "abi": [
    {
      "inputs": [
        {
          "internalType": "contract ThesisToken",
          "name": "_token",
          "type": "address"
        }
      ],
      "stateMutability": "nonpayable",
      "type": "constructor"
    },
    {
      "anonymous": false,
      "inputs": [
        {
          "indexed": false,
          "internalType": "address",
          "name": "account",
          "type": "address"
        },
        {
          "indexed": false,
          "internalType": "address",
          "name": "token",
          "type": "address"
        },
        {
          "indexed": false,
          "internalType": "uint256",
          "name": "amount",
          "type": "uint256"
        },
        {
          "indexed": false,
          "internalType": "uint256",
          "name": "rate",
          "type": "uint256"
        }
      ],
      "name": "TokenPurchased",
      "type": "event"
    },
    {
      "anonymous": false,
      "inputs": [
        {
          "indexed": false,
          "internalType": "address",
          "name": "account",
          "type": "address"
        },
        {
          "indexed": false,
          "internalType": "address",
          "name": "token",
          "type": "address"
        },
        {
          "indexed": false,
          "internalType": "uint256",
          "name": "amount",
          "type": "uint256"
        },
        {
          "indexed": false,
          "internalType": "uint256",
          "name": "rate",
          "type": "uint256"
        }
      ],
      "name": "TokensSold",
      "type": "event"
    },
    {
      "inputs": [
        {
          "internalType": "address",
          "name": "",
          "type": "address"
        }
      ],
      "name": "hasStaked",
      "outputs": [
        {
          "internalType": "bool",
          "name": "",
          "type": "bool"
        }
      ],
      "stateMutability": "view",
      "type": "function",
      "constant": true
    },
    {
      "inputs": [
        {
          "internalType": "address",
          "name": "",
          "type": "address"
        }
      ],
      "name": "isStaking",
      "outputs": [
        {
          "internalType": "bool",
          "name": "",
          "type": "bool"
        }
      ],
      "stateMutability": "view",
      "type": "function",
      "constant": true
    },
    {
      "inputs": [],
      "name": "name",
      "outputs": [
        {
          "internalType": "string",
          "name": "",
          "type": "string"
        }
      ],
      "stateMutability": "view",
      "type": "function",
      "constant": true
    },
    {
      "inputs": [],
      "name": "owner",
      "outputs": [
        {
          "internalType": "address",
          "name": "",
          "type": "address"
        }
      ],
      "stateMutability": "view",
      "type": "function",
      "constant": true
    },
    {
      "inputs": [],
      "name": "rate",
      "outputs": [
        {
          "internalType": "uint256",
          "name": "",
          "type": "uint256"
        }
      ],
      "stateMutability": "view",
      "type": "function",
      "constant": true
    },
    {
      "inputs": [
        {
          "internalType": "uint256",
          "name": "",
          "type": "uint256"
        }
      ],
      "name": "stakers",
      "outputs": [
        {
          "internalType": "address",
          "name": "",
          "type": "address"
        }
      ],
      "stateMutability": "view",
      "type": "function",
      "constant": true
    },
    {
      "inputs": [
        {
          "internalType": "address",
          "name": "",
          "type": "address"
        }
      ],
      "name": "stakingBalance",
      "outputs": [
        {
          "internalType": "uint256",
          "name": "",
          "type": "uint256"
        }
      ],
      "stateMutability": "view",
      "type": "function",
      "constant": true
    },
    {
      "inputs": [],
      "name": "token",
      "outputs": [
        {
          "internalType": "contract ThesisToken",
          "name": "",
          "type": "address"
        }
      ],
      "stateMutability": "view",
      "type": "function",
      "constant": true
    },
    {
      "inputs": [],
      "name": "buyTokens",
      "outputs": [],
      "stateMutability": "payable",
      "type": "function",
      "payable": true
    },
    {
      "inputs": [
        {
          "internalType": "uint256",
          "name": "_amount",
          "type": "uint256"
        }
      ],
      "name": "sellTokens",
      "outputs": [],
      "stateMutability": "nonpayable",
      "type": "function"
    },
    {
      "inputs": [
        {
          "internalType": "uint256",
          "name": "_amount",
          "type": "uint256"
        }
      ],
      "name": "stakeTokens",
      "outputs": [],
      "stateMutability": "nonpayable",
      "type": "function"
    },
    {
      "inputs": [],
      "name": "issueToken",
      "outputs": [],
      "stateMutability": "nonpayable",
      "type": "function"
    },
    {
      "inputs": [],
      "name": "unstakeTokens",
      "outputs": [],
      "stateMutability": "nonpayable",
      "type": "function"
    }
  ],
  "bytecode": "0x60806040526040518060400160405280601181526020017f4574685377617020666f7220546f6b656e0000000000000000000000000000008152506000908051906020019062000051929190620000d2565b5060646002553480156200006457600080fd5b506040516200196d3803806200196d83398181016040528101906200008a919062000200565b80600160006101000a81548173ffffffffffffffffffffffffffffffffffffffff021916908373ffffffffffffffffffffffffffffffffffffffff1602179055505062000297565b828054620000e09062000261565b90600052602060002090601f01602090048101928262000104576000855562000150565b82601f106200011f57805160ff191683800117855562000150565b8280016001018555821562000150579182015b828111156200014f57825182559160200191906001019062000132565b5b5090506200015f919062000163565b5090565b5b808211156200017e57600081600090555060010162000164565b5090565b600080fd5b600073ffffffffffffffffffffffffffffffffffffffff82169050919050565b6000620001b48262000187565b9050919050565b6000620001c882620001a7565b9050919050565b620001da81620001bb565b8114620001e657600080fd5b50565b600081519050620001fa81620001cf565b92915050565b60006020828403121562000219576200021862000182565b5b60006200022984828501620001e9565b91505092915050565b7f4e487b7100000000000000000000000000000000000000000000000000000000600052602260045260246000fd5b600060028204905060018216806200027a57607f821691505b6020821081141562000291576200029062000232565b5b50919050565b6116c680620002a76000396000f3fe6080604052600436106100df576000357c0100000000000000000000000000000000000000000000000000000000900480638da5cb5b1161009c578063c93c8f3411610076578063c93c8f341461025f578063d0febe4c1461029c578063fc0c546a146102a6578063fd5e6dd1146102d1576100df565b80638da5cb5b14610206578063a1ee8c7814610231578063a5ce413b14610248576100df565b806306fdde03146100e45780632c4e722e1461010f57806345bc78ab1461013a5780636c11bcd3146101775780636f49712b146101a05780637547c7a3146101dd575b600080fd5b3480156100f057600080fd5b506100f961030e565b6040516101069190610fdb565b60405180910390f35b34801561011b57600080fd5b5061012461039c565b6040516101319190611016565b60405180910390f35b34801561014657600080fd5b50610161600480360381019061015c9190611094565b6103a2565b60405161016e9190611016565b60405180910390f35b34801561018357600080fd5b5061019e600480360381019061019991906110ed565b6103ba565b005b3480156101ac57600080fd5b506101c760048036038101906101c29190611094565b61063d565b6040516101d49190611135565b60405180910390f35b3480156101e957600080fd5b5061020460048036038101906101ff91906110ed565b61065d565b005b34801561021257600080fd5b5061021b6108ff565b604051610228919061115f565b60405180910390f35b34801561023d57600080fd5b50610246610925565b005b34801561025457600080fd5b5061025d610b3a565b005b34801561026b57600080fd5b5061028660048036038101906102819190611094565b610ca8565b6040516102939190611135565b60405180910390f35b6102a4610cc8565b005b3480156102b257600080fd5b506102bb610edd565b6040516102c891906111d9565b60405180910390f35b3480156102dd57600080fd5b506102f860048036038101906102f391906110ed565b610f03565b604051610305919061115f565b60405180910390f35b6000805461031b90611223565b80601f016020809104026020016040519081016040528092919081815260200182805461034790611223565b80156103945780601f1061036957610100808354040283529160200191610394565b820191906000526020600020905b81548152906001019060200180831161037757829003601f168201915b505050505081565b60025481565b60056020528060005260406000206000915090505481565b80600160009054906101000a900473ffffffffffffffffffffffffffffffffffffffff1673ffffffffffffffffffffffffffffffffffffffff166370a08231336040518263ffffffff167c0100000000000000000000000000000000000000000000000000000000028152600401610432919061115f565b60206040518083038186803b15801561044a57600080fd5b505afa15801561045e573d6000803e3d6000fd5b505050506040513d601f19601f82011682018060405250810190610482919061126a565b101561048d57600080fd5b60006002548261049d91906112f5565b9050803073ffffffffffffffffffffffffffffffffffffffff163110156104c357600080fd5b600160009054906101000a900473ffffffffffffffffffffffffffffffffffffffff1673ffffffffffffffffffffffffffffffffffffffff166323b872dd3330856040518463ffffffff167c010000000000000000000000000000000000000000000000000000000002815260040161053e93929190611326565b602060405180830381600087803b15801561055857600080fd5b505af115801561056c573d6000803e3d6000fd5b505050506040513d601f19601f820116820180604052508101906105909190611389565b503373ffffffffffffffffffffffffffffffffffffffff166108fc829081150290604051600060405180830381858888f193505050501580156105d7573d6000803e3d6000fd5b507f697c42d55a5e1fed3f464ec6f38b32546a0bd368dc8068b065c67566d73f329033600160009054906101000a900473ffffffffffffffffffffffffffffffffffffffff168460025460405161063194939291906113b6565b60405180910390a15050565b60076020528060005260406000206000915054906101000a900460ff1681565b600081116106a0576040517f08c379a000000000000000000000000000000000000000000000000000000000815260040161069790611447565b60405180910390fd5b600360009054906101000a900473ffffffffffffffffffffffffffffffffffffffff1673ffffffffffffffffffffffffffffffffffffffff166108fc829081150290604051600060405180830381858888f19350505050158015610708573d6000803e3d6000fd5b5080600560003373ffffffffffffffffffffffffffffffffffffffff1673ffffffffffffffffffffffffffffffffffffffff168152602001908152602001600020546107549190611467565b600560003373ffffffffffffffffffffffffffffffffffffffff1673ffffffffffffffffffffffffffffffffffffffff16815260200190815260200160002081905550600660003373ffffffffffffffffffffffffffffffffffffffff1673ffffffffffffffffffffffffffffffffffffffff16815260200190815260200160002060009054906101000a900460ff1661084c576004339080600181540180825580915050600190039060005260206000200160009091909190916101000a81548173ffffffffffffffffffffffffffffffffffffffff021916908373ffffffffffffffffffffffffffffffffffffffff1602179055505b6001600660003373ffffffffffffffffffffffffffffffffffffffff1673ffffffffffffffffffffffffffffffffffffffff16815260200190815260200160002060006101000a81548160ff0219169083151502179055506001600760003373ffffffffffffffffffffffffffffffffffffffff1673ffffffffffffffffffffffffffffffffffffffff16815260200190815260200160002060006101000a81548160ff02191690831515021790555050565b600360009054906101000a900473ffffffffffffffffffffffffffffffffffffffff1681565b600360009054906101000a900473ffffffffffffffffffffffffffffffffffffffff1673ffffffffffffffffffffffffffffffffffffffff163373ffffffffffffffffffffffffffffffffffffffff16146109b5576040517f08c379a00000000000000000000000000000000000000000000000000000000081526004016109ac90611509565b60405180910390fd5b60005b600480549050811015610b37576000600482815481106109db576109da611529565b5b9060005260206000200160009054906101000a900473ffffffffffffffffffffffffffffffffffffffff1690506000600560008373ffffffffffffffffffffffffffffffffffffffff1673ffffffffffffffffffffffffffffffffffffffff1681526020019081526020016000205490506000811115610b2257600160009054906101000a900473ffffffffffffffffffffffffffffffffffffffff1673ffffffffffffffffffffffffffffffffffffffff1663a9059cbb83836040518363ffffffff167c0100000000000000000000000000000000000000000000000000000000028152600401610ace929190611558565b602060405180830381600087803b158015610ae857600080fd5b505af1158015610afc573d6000803e3d6000fd5b505050506040513d601f19601f82011682018060405250810190610b209190611389565b505b50508080610b2f90611581565b9150506109b8565b50565b6000600560003373ffffffffffffffffffffffffffffffffffffffff1673ffffffffffffffffffffffffffffffffffffffff16815260200190815260200160002054905060008111610bc1576040517f08c379a0000000000000000000000000000000000000000000000000000000008152600401610bb890611616565b60405180910390fd5b3373ffffffffffffffffffffffffffffffffffffffff166108fc829081150290604051600060405180830381858888f19350505050158015610c07573d6000803e3d6000fd5b506000600560003373ffffffffffffffffffffffffffffffffffffffff1673ffffffffffffffffffffffffffffffffffffffff168152602001908152602001600020819055506000600760003373ffffffffffffffffffffffffffffffffffffffff1673ffffffffffffffffffffffffffffffffffffffff16815260200190815260200160002060006101000a81548160ff02191690831515021790555050565b60066020528060005260406000206000915054906101000a900460ff1681565b600060025434610cd89190611636565b905080600160009054906101000a900473ffffffffffffffffffffffffffffffffffffffff1673ffffffffffffffffffffffffffffffffffffffff166370a08231306040518263ffffffff167c0100000000000000000000000000000000000000000000000000000000028152600401610d52919061115f565b60206040518083038186803b158015610d6a57600080fd5b505afa158015610d7e573d6000803e3d6000fd5b505050506040513d601f19601f82011682018060405250810190610da2919061126a565b1015610dad57600080fd5b600160009054906101000a900473ffffffffffffffffffffffffffffffffffffffff1673ffffffffffffffffffffffffffffffffffffffff1663a9059cbb33836040518363ffffffff167c0100000000000000000000000000000000000000000000000000000000028152600401610e26929190611558565b602060405180830381600087803b158015610e4057600080fd5b505af1158015610e54573d6000803e3d6000fd5b505050506040513d601f19601f82011682018060405250810190610e789190611389565b507f8daf503382665d950e449b86172be5222275c90f4ddf69c29fdaa8237a562a6d33600160009054906101000a900473ffffffffffffffffffffffffffffffffffffffff1683600254604051610ed294939291906113b6565b60405180910390a150565b600160009054906101000a900473ffffffffffffffffffffffffffffffffffffffff1681565b60048181548110610f1357600080fd5b906000526020600020016000915054906101000a900473ffffffffffffffffffffffffffffffffffffffff1681565b600081519050919050565b600082825260208201905092915050565b60005b83811015610f7c578082015181840152602081019050610f61565b83811115610f8b576000848401525b50505050565b6000601f19601f8301169050919050565b6000610fad82610f42565b610fb78185610f4d565b9350610fc7818560208601610f5e565b610fd081610f91565b840191505092915050565b60006020820190508181036000830152610ff58184610fa2565b905092915050565b6000819050919050565b61101081610ffd565b82525050565b600060208201905061102b6000830184611007565b92915050565b600080fd5b600073ffffffffffffffffffffffffffffffffffffffff82169050919050565b600061106182611036565b9050919050565b61107181611056565b811461107c57600080fd5b50565b60008135905061108e81611068565b92915050565b6000602082840312156110aa576110a9611031565b5b60006110b88482850161107f565b91505092915050565b6110ca81610ffd565b81146110d557600080fd5b50565b6000813590506110e7816110c1565b92915050565b60006020828403121561110357611102611031565b5b6000611111848285016110d8565b91505092915050565b60008115159050919050565b61112f8161111a565b82525050565b600060208201905061114a6000830184611126565b92915050565b61115981611056565b82525050565b60006020820190506111746000830184611150565b92915050565b6000819050919050565b600061119f61119a61119584611036565b61117a565b611036565b9050919050565b60006111b182611184565b9050919050565b60006111c3826111a6565b9050919050565b6111d3816111b8565b82525050565b60006020820190506111ee60008301846111ca565b92915050565b7f4e487b7100000000000000000000000000000000000000000000000000000000600052602260045260246000fd5b6000600282049050600182168061123b57607f821691505b6020821081141561124f5761124e6111f4565b5b50919050565b600081519050611264816110c1565b92915050565b6000602082840312156112805761127f611031565b5b600061128e84828501611255565b91505092915050565b7f4e487b7100000000000000000000000000000000000000000000000000000000600052601260045260246000fd5b7f4e487b7100000000000000000000000000000000000000000000000000000000600052601160045260246000fd5b600061130082610ffd565b915061130b83610ffd565b92508261131b5761131a611297565b5b828204905092915050565b600060608201905061133b6000830186611150565b6113486020830185611150565b6113556040830184611007565b949350505050565b6113668161111a565b811461137157600080fd5b50565b6000815190506113838161135d565b92915050565b60006020828403121561139f5761139e611031565b5b60006113ad84828501611374565b91505092915050565b60006080820190506113cb6000830187611150565b6113d86020830186611150565b6113e56040830185611007565b6113f26060830184611007565b95945050505050565b7f616d6f756e742063616e6e6f7420626520300000000000000000000000000000600082015250565b6000611431601283610f4d565b915061143c826113fb565b602082019050919050565b6000602082019050818103600083015261146081611424565b9050919050565b600061147282610ffd565b915061147d83610ffd565b9250827fffffffffffffffffffffffffffffffffffffffffffffffffffffffffffffffff038211156114b2576114b16112c6565b5b828201905092915050565b7f63616c6c6572206d757374206265206f776e6572000000000000000000000000600082015250565b60006114f3601483610f4d565b91506114fe826114bd565b602082019050919050565b60006020820190508181036000830152611522816114e6565b9050919050565b7f4e487b7100000000000000000000000000000000000000000000000000000000600052603260045260246000fd5b600060408201905061156d6000830185611150565b61157a6020830184611007565b9392505050565b600061158c82610ffd565b91507fffffffffffffffffffffffffffffffffffffffffffffffffffffffffffffffff8214156115bf576115be6112c6565b5b600182019050919050565b7f7374616b696e672062616c616e63652063616e6e6f7420626520300000000000600082015250565b6000611600601b83610f4d565b915061160b826115ca565b602082019050919050565b6000602082019050818103600083015261162f816115f3565b9050919050565b600061164182610ffd565b915061164c83610ffd565b9250817fffffffffffffffffffffffffffffffffffffffffffffffffffffffffffffffff0483118215151615611685576116846112c6565b5b82820290509291505056fea264697066735822122027a9b77a1b02e3fa3ddf94935fc9a98f09ad2096c0c3d5a7a83211fb5f843c2764736f6c63430008090033",
  "immutableReferences": {},
  "source": "// SPDX-License-Identifier: MIT\r\n\r\npragma solidity ^0.8.0;\r\n\r\nimport \"./ThesisToken.sol\";\r\n\r\ncontract EthSwap {\r\n    string public name = \"EthSwap for Token\";\r\n    ThesisToken public token;\r\n    uint public rate = 100;\r\n\r\n    address public owner;\r\n\r\n    // address of staking addresses;\r\n    address[] public stakers;\r\n\r\n    // the stalking balance for a specific User\r\n    mapping(address => uint) public stakingBalance;\r\n\r\n    // check if the address has Staked\r\n    mapping(address => bool) public hasStaked;\r\n\r\n    mapping(address => bool) public isStaking;\r\n\r\n    event TokenPurchased(\r\n        address account,\r\n        address token,\r\n        uint amount,\r\n        uint rate\r\n    );\r\n\r\n    event TokensSold(\r\n        address account,\r\n        address token,\r\n        uint amount,\r\n        uint rate\r\n    );\r\n\r\n    // if variable in constructor -> then it needs to be passed in the migration\r\n    constructor(ThesisToken _token) public {\r\n        token = _token;\r\n    }\r\n\r\n    // payable to send ether\r\n    function buyTokens() public payable {\r\n        // redemption rate = # of tokens they receive for 1 ether\r\n        // Amount of Ethereum * Redemption rate\r\n        // Calculate the number of tokens to buy -> msg.value is the amount of ether that is sended\r\n        uint tokenAmount = msg.value * rate;\r\n\r\n        // integrate a require -> check if ethSwap balance of thesis tokens is enough -> this is the address of the ethSwap Contract\r\n        // require ethSwap have enough tokens\r\n        require(\r\n            token.balanceOf(address(this)) >= tokenAmount\r\n        );\r\n\r\n        token.transfer(msg.sender, tokenAmount);\r\n\r\n        // trigger Event that tokens were purchased\r\n        emit TokenPurchased(msg.sender, address(token), tokenAmount, rate);\r\n    }\r\n\r\n    function sellTokens(uint _amount) public {\r\n        // User can't sell more tokens than they have\r\n        require(token.balanceOf(msg.sender) >= _amount);\r\n\r\n        // calculate the amount of Ether\r\n        uint etherAmount = _amount / rate;\r\n\r\n        // require that EthSwap has enough Ether\r\n        require(address(this).balance >= etherAmount);\r\n\r\n        // Perfom sale -> transfer Thesis Tokens back to EthSwap -> again use the address of the contract -> this\r\n        // we can not use the simple transfer function on an ERC-20 Token\r\n        // instead we have to use the transferFrom function -> to allow transfer from an address to EthSwap\r\n        token.transferFrom(msg.sender, address(this), _amount);\r\n        // this will also trigger approve function of the ERC-20 Token -> needs to be called inside a test\r\n\r\n        // -> we use transfer for native Ethereum\r\n        payable(msg.sender).transfer(etherAmount);\r\n\r\n        // emit an Event\r\n        emit TokensSold(msg.sender, address(token), _amount, rate);\r\n    }\r\n\r\n    // 1. Stakes Tokens (Deposit)\r\n    function stakeTokens(uint _amount) public {\r\n        // require amount to stake is greater than 0 \r\n        require(_amount > 0, \"amount cannot be 0\");\r\n\r\n        //msg.sender.approve(msg.sender, _amount);\r\n        // Transfer eth to this (tokenfarm) contract for staking\r\n        payable(owner).transfer(_amount);\r\n\r\n        // Update staking balance\r\n        stakingBalance[msg.sender] =  stakingBalance[msg.sender] + _amount;\r\n\r\n        // Add user to stakers array if they haven't staked already\r\n        if(!hasStaked[msg.sender]) {\r\n            // the stakers array should only contain addresses once\r\n            stakers.push(msg.sender);\r\n        }\r\n\r\n        // update staking status\r\n        hasStaked[msg.sender] = true;\r\n        isStaking[msg.sender] = true;\r\n    }\r\n    // 2. Issuing Tokens -> reward (triggered only by owner)\r\n    function issueToken() public {\r\n        // this functions should only be triggered by the owner of the smart contract\r\n        require(msg.sender == owner, \"caller must be owner\");\r\n\r\n        // loop through stakers array\r\n        for(uint i=0; i < stakers.length; i++) {\r\n            address recipient = stakers[i];\r\n            // for each staker get the balance of the staked thesis Tokens -> stakingBalance\r\n            uint balance =  stakingBalance[recipient];\r\n            if(balance > 0 ) {\r\n                // send them the same amount of thesis Tokens\r\n            token.transfer(recipient, balance);\r\n            }\r\n        }\r\n    }\r\n\r\n    // 3. Unstaking Tokens (Withdraw) -> allow investor to remove tokens from the application -> from the tokaneFarm\r\n    function unstakeTokens() public {\r\n\r\n        // Fetch staking balance\r\n        uint balance = stakingBalance[msg.sender];\r\n        // require amount greater than 0\r\n        require(balance > 0 , \"staking balance cannot be 0\");\r\n\r\n        // transfer eth to this contract for staking\r\n        payable(msg.sender).transfer(balance);\r\n\r\n        // reset the staking balance\r\n        stakingBalance[msg.sender] = 0;\r\n\r\n        // update staking status\r\n        isStaking[msg.sender] = false;\r\n    }\r\n}",
  "sourcePath": "C:/uni/THESIS(Master)/Project/src/contracts/EthSwap.sol",
  "compiler": {
    "name": "solc",
    "version": "0.8.9+commit.e5eed63a.Emscripten.clang"
  },
  "schemaVersion": "3.4.3",
  "updatedAt": "2021-10-17T21:18:50.826Z",
  "networkType": "ethereum",
  "devdoc": {
    "kind": "dev",
    "methods": {},
    "version": 1
  },
  "userdoc": {
    "kind": "user",
    "methods": {},
    "version": 1
  }
}