{
  "contractName": "EthSwap",
  "abi": [
    {
      "inputs": [
        {
          "internalType": "contract ThesisToken",
          "name": "_token",
          "type": "address"
        }
      ],
      "stateMutability": "nonpayable",
      "type": "constructor"
    },
    {
      "anonymous": false,
      "inputs": [
        {
          "indexed": false,
          "internalType": "address",
          "name": "account",
          "type": "address"
        },
        {
          "indexed": false,
          "internalType": "address",
          "name": "token",
          "type": "address"
        },
        {
          "indexed": false,
          "internalType": "uint256",
          "name": "amount",
          "type": "uint256"
        },
        {
          "indexed": false,
          "internalType": "uint256",
          "name": "rate",
          "type": "uint256"
        }
      ],
      "name": "TokenPurchased",
      "type": "event"
    },
    {
      "anonymous": false,
      "inputs": [
        {
          "indexed": false,
          "internalType": "address",
          "name": "account",
          "type": "address"
        },
        {
          "indexed": false,
          "internalType": "address",
          "name": "token",
          "type": "address"
        },
        {
          "indexed": false,
          "internalType": "uint256",
          "name": "amount",
          "type": "uint256"
        },
        {
          "indexed": false,
          "internalType": "uint256",
          "name": "rate",
          "type": "uint256"
        }
      ],
      "name": "TokensSold",
      "type": "event"
    },
    {
      "inputs": [
        {
          "internalType": "address",
          "name": "",
          "type": "address"
        }
      ],
      "name": "hasStaked",
      "outputs": [
        {
          "internalType": "bool",
          "name": "",
          "type": "bool"
        }
      ],
      "stateMutability": "view",
      "type": "function",
      "constant": true
    },
    {
      "inputs": [
        {
          "internalType": "address",
          "name": "",
          "type": "address"
        }
      ],
      "name": "isStaking",
      "outputs": [
        {
          "internalType": "bool",
          "name": "",
          "type": "bool"
        }
      ],
      "stateMutability": "view",
      "type": "function",
      "constant": true
    },
    {
      "inputs": [],
      "name": "name",
      "outputs": [
        {
          "internalType": "string",
          "name": "",
          "type": "string"
        }
      ],
      "stateMutability": "view",
      "type": "function",
      "constant": true
    },
    {
      "inputs": [],
      "name": "owner",
      "outputs": [
        {
          "internalType": "address",
          "name": "",
          "type": "address"
        }
      ],
      "stateMutability": "view",
      "type": "function",
      "constant": true
    },
    {
      "inputs": [],
      "name": "rate",
      "outputs": [
        {
          "internalType": "uint256",
          "name": "",
          "type": "uint256"
        }
      ],
      "stateMutability": "view",
      "type": "function",
      "constant": true
    },
    {
      "inputs": [
        {
          "internalType": "uint256",
          "name": "",
          "type": "uint256"
        }
      ],
      "name": "stakers",
      "outputs": [
        {
          "internalType": "address",
          "name": "",
          "type": "address"
        }
      ],
      "stateMutability": "view",
      "type": "function",
      "constant": true
    },
    {
      "inputs": [
        {
          "internalType": "address",
          "name": "",
          "type": "address"
        }
      ],
      "name": "stakingBalance",
      "outputs": [
        {
          "internalType": "uint256",
          "name": "",
          "type": "uint256"
        }
      ],
      "stateMutability": "view",
      "type": "function",
      "constant": true
    },
    {
      "inputs": [],
      "name": "stakingRate",
      "outputs": [
        {
          "internalType": "uint256",
          "name": "",
          "type": "uint256"
        }
      ],
      "stateMutability": "view",
      "type": "function",
      "constant": true
    },
    {
      "inputs": [],
      "name": "token",
      "outputs": [
        {
          "internalType": "contract ThesisToken",
          "name": "",
          "type": "address"
        }
      ],
      "stateMutability": "view",
      "type": "function",
      "constant": true
    },
    {
      "inputs": [],
      "name": "buyTokens",
      "outputs": [],
      "stateMutability": "payable",
      "type": "function",
      "payable": true
    },
    {
      "inputs": [
        {
          "internalType": "uint256",
          "name": "_amount",
          "type": "uint256"
        }
      ],
      "name": "sellTokens",
      "outputs": [],
      "stateMutability": "nonpayable",
      "type": "function"
    },
    {
      "inputs": [],
      "name": "stakeTokens",
      "outputs": [],
      "stateMutability": "payable",
      "type": "function",
      "payable": true
    },
    {
      "inputs": [],
      "name": "issueToken",
      "outputs": [],
      "stateMutability": "nonpayable",
      "type": "function"
    },
    {
      "inputs": [
        {
          "internalType": "address payable",
          "name": "_to",
          "type": "address"
        },
        {
          "internalType": "uint256",
          "name": "_amount",
          "type": "uint256"
        }
      ],
      "name": "unstakeTokens",
      "outputs": [],
      "stateMutability": "nonpayable",
      "type": "function"
    }
  ],
  "bytecode": "0x60806040526040518060400160405280601181526020017f4574685377617020666f7220546f6b656e000000000000000000000000000000815250600090805190602001906200005192919062000118565b506064600255600a6003553480156200006957600080fd5b5060405162001ae138038062001ae183398181016040528101906200008f9190620001df565b80600160006101000a81548173ffffffffffffffffffffffffffffffffffffffff021916908373ffffffffffffffffffffffffffffffffffffffff16021790555033600460006101000a81548173ffffffffffffffffffffffffffffffffffffffff021916908373ffffffffffffffffffffffffffffffffffffffff16021790555050620002d2565b828054620001269062000253565b90600052602060002090601f0160209004810192826200014a576000855562000196565b82601f106200016557805160ff191683800117855562000196565b8280016001018555821562000196579182015b828111156200019557825182559160200191906001019062000178565b5b509050620001a59190620001a9565b5090565b5b80821115620001c4576000816000905550600101620001aa565b5090565b600081519050620001d981620002b8565b92915050565b600060208284031215620001f257600080fd5b60006200020284828501620001c8565b91505092915050565b6000620002188262000233565b9050919050565b60006200022c826200020b565b9050919050565b600073ffffffffffffffffffffffffffffffffffffffff82169050919050565b600060028204905060018216806200026c57607f821691505b6020821081141562000283576200028262000289565b5b50919050565b7f4e487b7100000000000000000000000000000000000000000000000000000000600052602260045260246000fd5b620002c3816200021f565b8114620002cf57600080fd5b50565b6117ff80620002e26000396000f3fe6080604052600436106100dd5760003560e01c8063c63a6ad21161007f578063d0febe4c11610059578063d0febe4c1461028f578063e89a173e14610299578063fc0c546a146102c2578063fd5e6dd1146102ed576100dd565b8063c63a6ad21461021d578063c93c8f3414610248578063ce46643b14610285576100dd565b80636c11bcd3116100bb5780636c11bcd3146101755780636f49712b1461019e5780638da5cb5b146101db578063a1ee8c7814610206576100dd565b806306fdde03146100e25780632c4e722e1461010d57806345bc78ab14610138575b600080fd5b3480156100ee57600080fd5b506100f761032a565b60405161010491906112dd565b60405180910390f35b34801561011957600080fd5b506101226103b8565b60405161012f919061137f565b60405180910390f35b34801561014457600080fd5b5061015f600480360381019061015a9190610fce565b6103be565b60405161016c919061137f565b60405180910390f35b34801561018157600080fd5b5061019c6004803603810190610197919061105c565b6103d6565b005b3480156101aa57600080fd5b506101c560048036038101906101c09190610fce565b610621565b6040516101d291906112a7565b60405180910390f35b3480156101e757600080fd5b506101f0610641565b6040516101fd91906111e7565b60405180910390f35b34801561021257600080fd5b5061021b610667565b005b34801561022957600080fd5b50610232610899565b60405161023f919061137f565b60405180910390f35b34801561025457600080fd5b5061026f600480360381019061026a9190610fce565b61089f565b60405161027c91906112a7565b60405180910390f35b61028d6108bf565b005b610297610af7565b005b3480156102a557600080fd5b506102c060048036038101906102bb9190610ff7565b610cd4565b005b3480156102ce57600080fd5b506102d7610f00565b6040516102e491906112c2565b60405180910390f35b3480156102f957600080fd5b50610314600480360381019061030f919061105c565b610f26565b60405161032191906111e7565b60405180910390f35b6000805461033790611587565b80601f016020809104026020016040519081016040528092919081815260200182805461036390611587565b80156103b05780601f10610385576101008083540402835291602001916103b0565b820191906000526020600020905b81548152906001019060200180831161039357829003601f168201915b505050505081565b60025481565b60066020528060005260406000206000915090505481565b80600160009054906101000a900473ffffffffffffffffffffffffffffffffffffffff1673ffffffffffffffffffffffffffffffffffffffff166370a08231336040518263ffffffff1660e01b815260040161043291906111e7565b60206040518083038186803b15801561044a57600080fd5b505afa15801561045e573d6000803e3d6000fd5b505050506040513d601f19601f820116820180604052508101906104829190611085565b101561048d57600080fd5b60006002548261049d9190611417565b9050803073ffffffffffffffffffffffffffffffffffffffff163110156104c357600080fd5b600160009054906101000a900473ffffffffffffffffffffffffffffffffffffffff1673ffffffffffffffffffffffffffffffffffffffff166323b872dd3330856040518463ffffffff1660e01b815260040161052293929190611202565b602060405180830381600087803b15801561053c57600080fd5b505af1158015610550573d6000803e3d6000fd5b505050506040513d601f19601f820116820180604052508101906105749190611033565b503373ffffffffffffffffffffffffffffffffffffffff166108fc829081150290604051600060405180830381858888f193505050501580156105bb573d6000803e3d6000fd5b507f697c42d55a5e1fed3f464ec6f38b32546a0bd368dc8068b065c67566d73f329033600160009054906101000a900473ffffffffffffffffffffffffffffffffffffffff16846002546040516106159493929190611239565b60405180910390a15050565b60086020528060005260406000206000915054906101000a900460ff1681565b600460009054906101000a900473ffffffffffffffffffffffffffffffffffffffff1681565b600460009054906101000a900473ffffffffffffffffffffffffffffffffffffffff1673ffffffffffffffffffffffffffffffffffffffff163373ffffffffffffffffffffffffffffffffffffffff16146106f7576040517f08c379a00000000000000000000000000000000000000000000000000000000081526004016106ee9061131f565b60405180910390fd5b60005b60058054905081101561089657600060058281548110610743577f4e487b7100000000000000000000000000000000000000000000000000000000600052603260045260246000fd5b9060005260206000200160009054906101000a900473ffffffffffffffffffffffffffffffffffffffff1690506000600660008373ffffffffffffffffffffffffffffffffffffffff1673ffffffffffffffffffffffffffffffffffffffff1681526020019081526020016000205490506000811115610881576000600354826107cd9190611448565b9050600160009054906101000a900473ffffffffffffffffffffffffffffffffffffffff1673ffffffffffffffffffffffffffffffffffffffff1663a9059cbb84836040518363ffffffff1660e01b815260040161082c92919061127e565b602060405180830381600087803b15801561084657600080fd5b505af115801561085a573d6000803e3d6000fd5b505050506040513d601f19601f8201168201806040525081019061087e9190611033565b50505b5050808061088e906115b9565b9150506106fa565b50565b60035481565b60076020528060005260406000206000915054906101000a900460ff1681565b60003411610902576040517f08c379a00000000000000000000000000000000000000000000000000000000081526004016108f99061133f565b60405180910390fd5b34600660003373ffffffffffffffffffffffffffffffffffffffff1673ffffffffffffffffffffffffffffffffffffffff1681526020019081526020016000205461094d91906113c1565b600660003373ffffffffffffffffffffffffffffffffffffffff1673ffffffffffffffffffffffffffffffffffffffff16815260200190815260200160002081905550600760003373ffffffffffffffffffffffffffffffffffffffff1673ffffffffffffffffffffffffffffffffffffffff16815260200190815260200160002060009054906101000a900460ff16610a45576005339080600181540180825580915050600190039060005260206000200160009091909190916101000a81548173ffffffffffffffffffffffffffffffffffffffff021916908373ffffffffffffffffffffffffffffffffffffffff1602179055505b6001600760003373ffffffffffffffffffffffffffffffffffffffff1673ffffffffffffffffffffffffffffffffffffffff16815260200190815260200160002060006101000a81548160ff0219169083151502179055506001600860003373ffffffffffffffffffffffffffffffffffffffff1673ffffffffffffffffffffffffffffffffffffffff16815260200190815260200160002060006101000a81548160ff021916908315150217905550565b600060025434610b079190611448565b905080600160009054906101000a900473ffffffffffffffffffffffffffffffffffffffff1673ffffffffffffffffffffffffffffffffffffffff166370a08231306040518263ffffffff1660e01b8152600401610b6591906111e7565b60206040518083038186803b158015610b7d57600080fd5b505afa158015610b91573d6000803e3d6000fd5b505050506040513d601f19601f82011682018060405250810190610bb59190611085565b1015610bc057600080fd5b600160009054906101000a900473ffffffffffffffffffffffffffffffffffffffff1673ffffffffffffffffffffffffffffffffffffffff1663a9059cbb33836040518363ffffffff1660e01b8152600401610c1d92919061127e565b602060405180830381600087803b158015610c3757600080fd5b505af1158015610c4b573d6000803e3d6000fd5b505050506040513d601f19601f82011682018060405250810190610c6f9190611033565b507f8daf503382665d950e449b86172be5222275c90f4ddf69c29fdaa8237a562a6d33600160009054906101000a900473ffffffffffffffffffffffffffffffffffffffff1683600254604051610cc99493929190611239565b60405180910390a150565b6000600660008473ffffffffffffffffffffffffffffffffffffffff1673ffffffffffffffffffffffffffffffffffffffff16815260200190815260200160002054905081811015610d5b576040517f08c379a0000000000000000000000000000000000000000000000000000000008152600401610d529061135f565b60405180910390fd5b6000808473ffffffffffffffffffffffffffffffffffffffff1684604051610d82906111d2565b60006040518083038185875af1925050503d8060008114610dbf576040519150601f19603f3d011682016040523d82523d6000602084013e610dc4565b606091505b509150915081610e09576040517f08c379a0000000000000000000000000000000000000000000000000000000008152600401610e00906112ff565b60405180910390fd5b8383610e1591906114a2565b600660008773ffffffffffffffffffffffffffffffffffffffff1673ffffffffffffffffffffffffffffffffffffffff168152602001908152602001600020819055506000600660008773ffffffffffffffffffffffffffffffffffffffff1673ffffffffffffffffffffffffffffffffffffffff168152602001908152602001600020541415610ef9576000600860008773ffffffffffffffffffffffffffffffffffffffff1673ffffffffffffffffffffffffffffffffffffffff16815260200190815260200160002060006101000a81548160ff0219169083151502179055505b5050505050565b600160009054906101000a900473ffffffffffffffffffffffffffffffffffffffff1681565b60058181548110610f3657600080fd5b906000526020600020016000915054906101000a900473ffffffffffffffffffffffffffffffffffffffff1681565b600081359050610f748161176d565b92915050565b600081359050610f8981611784565b92915050565b600081519050610f9e8161179b565b92915050565b600081359050610fb3816117b2565b92915050565b600081519050610fc8816117b2565b92915050565b600060208284031215610fe057600080fd5b6000610fee84828501610f65565b91505092915050565b6000806040838503121561100a57600080fd5b600061101885828601610f7a565b925050602061102985828601610fa4565b9150509250929050565b60006020828403121561104557600080fd5b600061105384828501610f8f565b91505092915050565b60006020828403121561106e57600080fd5b600061107c84828501610fa4565b91505092915050565b60006020828403121561109757600080fd5b60006110a584828501610fb9565b91505092915050565b6110b7816114d6565b82525050565b6110c6816114fa565b82525050565b6110d581611530565b82525050565b60006110e68261139a565b6110f081856113b0565b9350611100818560208601611554565b6111098161168f565b840191505092915050565b60006111216018836113b0565b915061112c826116a0565b602082019050919050565b60006111446000836113a5565b915061114f826116c9565b600082019050919050565b60006111676014836113b0565b9150611172826116cc565b602082019050919050565b600061118a6012836113b0565b9150611195826116f5565b602082019050919050565b60006111ad6023836113b0565b91506111b88261171e565b604082019050919050565b6111cc81611526565b82525050565b60006111dd82611137565b9150819050919050565b60006020820190506111fc60008301846110ae565b92915050565b600060608201905061121760008301866110ae565b61122460208301856110ae565b61123160408301846111c3565b949350505050565b600060808201905061124e60008301876110ae565b61125b60208301866110ae565b61126860408301856111c3565b61127560608301846111c3565b95945050505050565b600060408201905061129360008301856110ae565b6112a060208301846111c3565b9392505050565b60006020820190506112bc60008301846110bd565b92915050565b60006020820190506112d760008301846110cc565b92915050565b600060208201905081810360008301526112f781846110db565b905092915050565b6000602082019050818103600083015261131881611114565b9050919050565b600060208201905081810360008301526113388161115a565b9050919050565b600060208201905081810360008301526113588161117d565b9050919050565b60006020820190508181036000830152611378816111a0565b9050919050565b600060208201905061139460008301846111c3565b92915050565b600081519050919050565b600081905092915050565b600082825260208201905092915050565b60006113cc82611526565b91506113d783611526565b9250827fffffffffffffffffffffffffffffffffffffffffffffffffffffffffffffffff0382111561140c5761140b611602565b5b828201905092915050565b600061142282611526565b915061142d83611526565b92508261143d5761143c611631565b5b828204905092915050565b600061145382611526565b915061145e83611526565b9250817fffffffffffffffffffffffffffffffffffffffffffffffffffffffffffffffff048311821515161561149757611496611602565b5b828202905092915050565b60006114ad82611526565b91506114b883611526565b9250828210156114cb576114ca611602565b5b828203905092915050565b60006114e182611506565b9050919050565b60006114f382611506565b9050919050565b60008115159050919050565b600073ffffffffffffffffffffffffffffffffffffffff82169050919050565b6000819050919050565b600061153b82611542565b9050919050565b600061154d82611506565b9050919050565b60005b83811015611572578082015181840152602081019050611557565b83811115611581576000848401525b50505050565b6000600282049050600182168061159f57607f821691505b602082108114156115b3576115b2611660565b5b50919050565b60006115c482611526565b91507fffffffffffffffffffffffffffffffffffffffffffffffffffffffffffffffff8214156115f7576115f6611602565b5b600182019050919050565b7f4e487b7100000000000000000000000000000000000000000000000000000000600052601160045260246000fd5b7f4e487b7100000000000000000000000000000000000000000000000000000000600052601260045260246000fd5b7f4e487b7100000000000000000000000000000000000000000000000000000000600052602260045260246000fd5b6000601f19601f8301169050919050565b7f4661696c656420746f2077697468647261772045746865720000000000000000600082015250565b50565b7f63616c6c6572206d757374206265206f776e6572000000000000000000000000600082015250565b7f616d6f756e742063616e6e6f7420626520300000000000000000000000000000600082015250565b7f43616e6e6f7420756e7374616b65206d6f726520657468207468616e2073746160008201527f6b65640000000000000000000000000000000000000000000000000000000000602082015250565b611776816114d6565b811461178157600080fd5b50565b61178d816114e8565b811461179857600080fd5b50565b6117a4816114fa565b81146117af57600080fd5b50565b6117bb81611526565b81146117c657600080fd5b5056fea2646970667358221220e74f1c6efc7af33d028531244cb798179336475a05c9497fd63ca4fae61f489464736f6c63430008030033",
  "immutableReferences": {},
  "source": "// SPDX-License-Identifier: MIT\r\n\r\npragma solidity ^0.8.3;\r\n\r\nimport \"./ThesisToken.sol\";\r\n\r\ncontract EthSwap {\r\n    string public name = \"EthSwap for Token\";\r\n    ThesisToken public token;\r\n    uint public rate = 100;\r\n    uint public stakingRate = 10;\r\n\r\n    address public owner;\r\n\r\n    // address of staking addresses;\r\n    address[] public stakers;\r\n\r\n    // the stalking balance for a specific User\r\n    mapping(address => uint) public stakingBalance;\r\n\r\n    // check if the address has Staked\r\n    mapping(address => bool) public hasStaked;\r\n\r\n    mapping(address => bool) public isStaking;\r\n\r\n    event TokenPurchased(\r\n        address account,\r\n        address token,\r\n        uint amount,\r\n        uint rate\r\n    );\r\n\r\n    event TokensSold(\r\n        address account,\r\n        address token,\r\n        uint amount,\r\n        uint rate\r\n    );\r\n\r\n    // if variable in constructor -> then it needs to be passed in the migration\r\n    constructor(ThesisToken _token) public {\r\n        token = _token;\r\n        owner = msg.sender;\r\n    }\r\n\r\n    // payable to send ether\r\n    function buyTokens() public payable {\r\n        // redemption rate = # of tokens they receive for 1 ether\r\n        // Amount of Ethereum * Redemption rate\r\n        // Calculate the number of tokens to buy -> msg.value is the amount of ether that is sended\r\n        uint tokenAmount = msg.value * rate;\r\n\r\n        // integrate a require -> check if ethSwap balance of thesis tokens is enough -> this is the address of the ethSwap Contract\r\n        // require ethSwap have enough tokens\r\n        require(\r\n            token.balanceOf(address(this)) >= tokenAmount\r\n        );\r\n\r\n        token.transfer(msg.sender, tokenAmount);\r\n\r\n        // trigger Event that tokens were purchased\r\n        emit TokenPurchased(msg.sender, address(token), tokenAmount, rate);\r\n    }\r\n\r\n    function sellTokens(uint _amount) public {\r\n        // User can't sell more tokens than they have\r\n        require(token.balanceOf(msg.sender) >= _amount);\r\n\r\n        // calculate the amount of Ether\r\n        uint etherAmount = _amount / rate;\r\n\r\n        // require that EthSwap has enough Ether\r\n        require(address(this).balance >= etherAmount);\r\n\r\n        // Perfom sale -> transfer Thesis Tokens back to EthSwap -> again use the address of the contract -> this\r\n        // we can not use the simple transfer function on an ERC-20 Token\r\n        // instead we have to use the transferFrom function -> to allow transfer from an address to EthSwap\r\n        token.transferFrom(msg.sender, address(this), _amount);\r\n        // this will also trigger approve function of the ERC-20 Token -> needs to be called inside a test\r\n\r\n        // -> we use transfer for native Ethereum\r\n        payable(msg.sender).transfer(etherAmount);\r\n\r\n        // emit an Event\r\n        emit TokensSold(msg.sender, address(token), _amount, rate);\r\n    }\r\n\r\n    // 1. Stakes Tokens (Deposit)\r\n    function stakeTokens() payable public {\r\n        // require amount to stake is greater than 0 \r\n        require(msg.value > 0, \"amount cannot be 0\");\r\n\r\n        // Update staking balance\r\n        stakingBalance[msg.sender] =  stakingBalance[msg.sender] + msg.value;\r\n\r\n        // Add user to stakers array if they haven't staked already\r\n        if(!hasStaked[msg.sender]) {\r\n            // the stakers array should only contain addresses once\r\n            stakers.push(msg.sender);\r\n        }\r\n\r\n        // update staking status\r\n        hasStaked[msg.sender] = true;\r\n        isStaking[msg.sender] = true;\r\n    }\r\n    // 2. Issuing Tokens -> reward (triggered only by owner)\r\n    function issueToken() public {\r\n        // this functions should only be triggered by the owner of the smart contract\r\n        require(msg.sender == owner, \"caller must be owner\");\r\n\r\n        // loop through stakers array\r\n        for(uint i=0; i < stakers.length; i++) {\r\n            address recipient = stakers[i];\r\n            // for each staker get the balance of the staked thesis Tokens -> stakingBalance\r\n            uint balance =  stakingBalance[recipient];\r\n            if(balance > 0 ) {\r\n                // send them the same amount of thesis Tokens\r\n            uint amount = balance * stakingRate;\r\n            token.transfer(recipient, amount);\r\n            }\r\n        }\r\n    }\r\n\r\n    // 3. Unstaking Tokens (Withdraw) -> allow investor to remove tokens from the application -> from the tokaneFarm\r\n    function unstakeTokens(address payable _to, uint _amount) public {\r\n        // Fetch staking balance\r\n        //uint balance = stakingBalance[msg.sender]; // here ERROR? Maybe 0?\r\n        //uint balance = 1000000000000000000;\r\n        // require amount greater than 0\r\n        uint balance = stakingBalance[_to];\r\n        require(balance >= _amount , \"Cannot unstake more eth than staked\");\r\n\r\n        // transfer eth to this contract for staking\r\n        //payable(msg.sender).transfer(unstakeAmount);\r\n\r\n        (bool succeed, bytes memory data) = _to.call{value: _amount}(\"\");\r\n        require(succeed, \"Failed to withdraw Ether\");\r\n\r\n        // reset the staking balance\r\n        stakingBalance[_to] = balance - _amount;\r\n\r\n        if(stakingBalance[_to] == 0) {\r\n            // update staking status\r\n            isStaking[_to] = false;\r\n        } \r\n    }\r\n}",
  "sourcePath": "C:\\uni\\THESIS(Master)\\Project\\smart_contracts\\src\\contracts\\EthSwap.sol",
  "compiler": {
    "name": "solc",
    "version": "0.8.3+commit.8d00100c.Emscripten.clang"
  },
  "schemaVersion": "3.4.3",
  "updatedAt": "2021-11-21T01:09:07.425Z",
  "networkType": "ethereum",
  "devdoc": {
    "kind": "dev",
    "methods": {},
    "version": 1
  },
  "userdoc": {
    "kind": "user",
    "methods": {},
    "version": 1
  }
}