{
  "contractName": "EthSwap",
  "abi": [
    {
      "inputs": [
        {
          "internalType": "contract ThesisToken",
          "name": "_token",
          "type": "address"
        }
      ],
      "stateMutability": "nonpayable",
      "type": "constructor"
    },
    {
      "anonymous": false,
      "inputs": [
        {
          "indexed": false,
          "internalType": "address",
          "name": "account",
          "type": "address"
        },
        {
          "indexed": false,
          "internalType": "address",
          "name": "token",
          "type": "address"
        },
        {
          "indexed": false,
          "internalType": "uint256",
          "name": "amount",
          "type": "uint256"
        },
        {
          "indexed": false,
          "internalType": "uint256",
          "name": "rate",
          "type": "uint256"
        }
      ],
      "name": "TokenPurchased",
      "type": "event"
    },
    {
      "anonymous": false,
      "inputs": [
        {
          "indexed": false,
          "internalType": "address",
          "name": "account",
          "type": "address"
        },
        {
          "indexed": false,
          "internalType": "address",
          "name": "token",
          "type": "address"
        },
        {
          "indexed": false,
          "internalType": "uint256",
          "name": "amount",
          "type": "uint256"
        },
        {
          "indexed": false,
          "internalType": "uint256",
          "name": "rate",
          "type": "uint256"
        }
      ],
      "name": "TokensSold",
      "type": "event"
    },
    {
      "inputs": [
        {
          "internalType": "address",
          "name": "",
          "type": "address"
        }
      ],
      "name": "hasStaked",
      "outputs": [
        {
          "internalType": "bool",
          "name": "",
          "type": "bool"
        }
      ],
      "stateMutability": "view",
      "type": "function",
      "constant": true
    },
    {
      "inputs": [
        {
          "internalType": "address",
          "name": "",
          "type": "address"
        }
      ],
      "name": "isStaking",
      "outputs": [
        {
          "internalType": "bool",
          "name": "",
          "type": "bool"
        }
      ],
      "stateMutability": "view",
      "type": "function",
      "constant": true
    },
    {
      "inputs": [],
      "name": "name",
      "outputs": [
        {
          "internalType": "string",
          "name": "",
          "type": "string"
        }
      ],
      "stateMutability": "view",
      "type": "function",
      "constant": true
    },
    {
      "inputs": [],
      "name": "owner",
      "outputs": [
        {
          "internalType": "address",
          "name": "",
          "type": "address"
        }
      ],
      "stateMutability": "view",
      "type": "function",
      "constant": true
    },
    {
      "inputs": [],
      "name": "rate",
      "outputs": [
        {
          "internalType": "uint256",
          "name": "",
          "type": "uint256"
        }
      ],
      "stateMutability": "view",
      "type": "function",
      "constant": true
    },
    {
      "inputs": [
        {
          "internalType": "uint256",
          "name": "",
          "type": "uint256"
        }
      ],
      "name": "stakers",
      "outputs": [
        {
          "internalType": "address",
          "name": "",
          "type": "address"
        }
      ],
      "stateMutability": "view",
      "type": "function",
      "constant": true
    },
    {
      "inputs": [
        {
          "internalType": "address",
          "name": "",
          "type": "address"
        }
      ],
      "name": "stakingBalance",
      "outputs": [
        {
          "internalType": "uint256",
          "name": "",
          "type": "uint256"
        }
      ],
      "stateMutability": "view",
      "type": "function",
      "constant": true
    },
    {
      "inputs": [],
      "name": "stakingRate",
      "outputs": [
        {
          "internalType": "uint256",
          "name": "",
          "type": "uint256"
        }
      ],
      "stateMutability": "view",
      "type": "function",
      "constant": true
    },
    {
      "inputs": [],
      "name": "token",
      "outputs": [
        {
          "internalType": "contract ThesisToken",
          "name": "",
          "type": "address"
        }
      ],
      "stateMutability": "view",
      "type": "function",
      "constant": true
    },
    {
      "inputs": [],
      "name": "buyTokens",
      "outputs": [],
      "stateMutability": "payable",
      "type": "function",
      "payable": true
    },
    {
      "inputs": [
        {
          "internalType": "uint256",
          "name": "_amount",
          "type": "uint256"
        }
      ],
      "name": "sellTokens",
      "outputs": [],
      "stateMutability": "nonpayable",
      "type": "function"
    },
    {
      "inputs": [],
      "name": "stakeTokens",
      "outputs": [],
      "stateMutability": "payable",
      "type": "function",
      "payable": true
    },
    {
      "inputs": [],
      "name": "issueToken",
      "outputs": [],
      "stateMutability": "nonpayable",
      "type": "function"
    },
    {
      "inputs": [
        {
          "internalType": "address payable",
          "name": "_to",
          "type": "address"
        }
      ],
      "name": "unstakeTokens",
      "outputs": [],
      "stateMutability": "payable",
      "type": "function",
      "payable": true
    }
  ],
  "bytecode": "0x60806040526040518060400160405280601181526020017f4574685377617020666f7220546f6b656e000000000000000000000000000000815250600090805190602001906200005192919062000118565b506064600255600a6003553480156200006957600080fd5b5060405162001b2938038062001b2983398181016040528101906200008f9190620001df565b80600160006101000a81548173ffffffffffffffffffffffffffffffffffffffff021916908373ffffffffffffffffffffffffffffffffffffffff16021790555033600460006101000a81548173ffffffffffffffffffffffffffffffffffffffff021916908373ffffffffffffffffffffffffffffffffffffffff16021790555050620002d2565b828054620001269062000253565b90600052602060002090601f0160209004810192826200014a576000855562000196565b82601f106200016557805160ff191683800117855562000196565b8280016001018555821562000196579182015b828111156200019557825182559160200191906001019062000178565b5b509050620001a59190620001a9565b5090565b5b80821115620001c4576000816000905550600101620001aa565b5090565b600081519050620001d981620002b8565b92915050565b600060208284031215620001f257600080fd5b60006200020284828501620001c8565b91505092915050565b6000620002188262000233565b9050919050565b60006200022c826200020b565b9050919050565b600073ffffffffffffffffffffffffffffffffffffffff82169050919050565b600060028204905060018216806200026c57607f821691505b6020821081141562000283576200028262000289565b5b50919050565b7f4e487b7100000000000000000000000000000000000000000000000000000000600052602260045260246000fd5b620002c3816200021f565b8114620002cf57600080fd5b50565b61184780620002e26000396000f3fe6080604052600436106100dd5760003560e01c8063a1ee8c781161007f578063ce46643b11610059578063ce46643b146102a1578063d0febe4c146102ab578063fc0c546a146102b5578063fd5e6dd1146102e0576100dd565b8063a1ee8c7814610222578063c63a6ad214610239578063c93c8f3414610264576100dd565b806345bc78ab116100bb57806345bc78ab146101545780636c11bcd3146101915780636f49712b146101ba5780638da5cb5b146101f7576100dd565b806306fdde03146100e25780632c4e722e1461010d5780632d1ad8b814610138575b600080fd5b3480156100ee57600080fd5b506100f761031d565b6040516101049190611325565b60405180910390f35b34801561011957600080fd5b506101226103ab565b60405161012f91906113c7565b60405180910390f35b610152600480360381019061014d9190611052565b6103b1565b005b34801561016057600080fd5b5061017b60048036038101906101769190611029565b6105dc565b60405161018891906113c7565b60405180910390f35b34801561019d57600080fd5b506101b860048036038101906101b391906110a4565b6105f4565b005b3480156101c657600080fd5b506101e160048036038101906101dc9190611029565b61083f565b6040516101ee91906112ef565b60405180910390f35b34801561020357600080fd5b5061020c61085f565b604051610219919061122f565b60405180910390f35b34801561022e57600080fd5b50610237610885565b005b34801561024557600080fd5b5061024e610ab7565b60405161025b91906113c7565b60405180910390f35b34801561027057600080fd5b5061028b60048036038101906102869190611029565b610abd565b60405161029891906112ef565b60405180910390f35b6102a9610add565b005b6102b3610d7e565b005b3480156102c157600080fd5b506102ca610f5b565b6040516102d7919061130a565b60405180910390f35b3480156102ec57600080fd5b50610307600480360381019061030291906110a4565b610f81565b604051610314919061122f565b60405180910390f35b6000805461032a906115cf565b80601f0160208091040260200160405190810160405280929190818152602001828054610356906115cf565b80156103a35780601f10610378576101008083540402835291602001916103a3565b820191906000526020600020905b81548152906001019060200180831161038657829003601f168201915b505050505081565b60025481565b6000600660008373ffffffffffffffffffffffffffffffffffffffff1673ffffffffffffffffffffffffffffffffffffffff16815260200190815260200160002054905034811015610438576040517f08c379a000000000000000000000000000000000000000000000000000000000815260040161042f906113a7565b60405180910390fd5b6000808373ffffffffffffffffffffffffffffffffffffffff163460405161045f9061121a565b60006040518083038185875af1925050503d806000811461049c576040519150601f19603f3d011682016040523d82523d6000602084013e6104a1565b606091505b5091509150816104e6576040517f08c379a00000000000000000000000000000000000000000000000000000000081526004016104dd90611347565b60405180910390fd5b34836104f291906114ea565b600660008673ffffffffffffffffffffffffffffffffffffffff1673ffffffffffffffffffffffffffffffffffffffff168152602001908152602001600020819055506000600660008673ffffffffffffffffffffffffffffffffffffffff1673ffffffffffffffffffffffffffffffffffffffff1681526020019081526020016000205414156105d6576000600860008673ffffffffffffffffffffffffffffffffffffffff1673ffffffffffffffffffffffffffffffffffffffff16815260200190815260200160002060006101000a81548160ff0219169083151502179055505b50505050565b60066020528060005260406000206000915090505481565b80600160009054906101000a900473ffffffffffffffffffffffffffffffffffffffff1673ffffffffffffffffffffffffffffffffffffffff166370a08231336040518263ffffffff1660e01b8152600401610650919061122f565b60206040518083038186803b15801561066857600080fd5b505afa15801561067c573d6000803e3d6000fd5b505050506040513d601f19601f820116820180604052508101906106a091906110cd565b10156106ab57600080fd5b6000600254826106bb919061145f565b9050803073ffffffffffffffffffffffffffffffffffffffff163110156106e157600080fd5b600160009054906101000a900473ffffffffffffffffffffffffffffffffffffffff1673ffffffffffffffffffffffffffffffffffffffff166323b872dd3330856040518463ffffffff1660e01b81526004016107409392919061124a565b602060405180830381600087803b15801561075a57600080fd5b505af115801561076e573d6000803e3d6000fd5b505050506040513d601f19601f82011682018060405250810190610792919061107b565b503373ffffffffffffffffffffffffffffffffffffffff166108fc829081150290604051600060405180830381858888f193505050501580156107d9573d6000803e3d6000fd5b507f697c42d55a5e1fed3f464ec6f38b32546a0bd368dc8068b065c67566d73f329033600160009054906101000a900473ffffffffffffffffffffffffffffffffffffffff16846002546040516108339493929190611281565b60405180910390a15050565b60086020528060005260406000206000915054906101000a900460ff1681565b600460009054906101000a900473ffffffffffffffffffffffffffffffffffffffff1681565b600460009054906101000a900473ffffffffffffffffffffffffffffffffffffffff1673ffffffffffffffffffffffffffffffffffffffff163373ffffffffffffffffffffffffffffffffffffffff1614610915576040517f08c379a000000000000000000000000000000000000000000000000000000000815260040161090c90611367565b60405180910390fd5b60005b600580549050811015610ab457600060058281548110610961577f4e487b7100000000000000000000000000000000000000000000000000000000600052603260045260246000fd5b9060005260206000200160009054906101000a900473ffffffffffffffffffffffffffffffffffffffff1690506000600660008373ffffffffffffffffffffffffffffffffffffffff1673ffffffffffffffffffffffffffffffffffffffff1681526020019081526020016000205490506000811115610a9f576000600354826109eb9190611490565b9050600160009054906101000a900473ffffffffffffffffffffffffffffffffffffffff1673ffffffffffffffffffffffffffffffffffffffff1663a9059cbb84836040518363ffffffff1660e01b8152600401610a4a9291906112c6565b602060405180830381600087803b158015610a6457600080fd5b505af1158015610a78573d6000803e3d6000fd5b505050506040513d601f19601f82011682018060405250810190610a9c919061107b565b50505b50508080610aac90611601565b915050610918565b50565b60035481565b60076020528060005260406000206000915054906101000a900460ff1681565b60003411610b20576040517f08c379a0000000000000000000000000000000000000000000000000000000008152600401610b1790611387565b60405180910390fd5b600460009054906101000a900473ffffffffffffffffffffffffffffffffffffffff1673ffffffffffffffffffffffffffffffffffffffff166108fc349081150290604051600060405180830381858888f19350505050158015610b88573d6000803e3d6000fd5b5034600660003373ffffffffffffffffffffffffffffffffffffffff1673ffffffffffffffffffffffffffffffffffffffff16815260200190815260200160002054610bd49190611409565b600660003373ffffffffffffffffffffffffffffffffffffffff1673ffffffffffffffffffffffffffffffffffffffff16815260200190815260200160002081905550600760003373ffffffffffffffffffffffffffffffffffffffff1673ffffffffffffffffffffffffffffffffffffffff16815260200190815260200160002060009054906101000a900460ff16610ccc576005339080600181540180825580915050600190039060005260206000200160009091909190916101000a81548173ffffffffffffffffffffffffffffffffffffffff021916908373ffffffffffffffffffffffffffffffffffffffff1602179055505b6001600760003373ffffffffffffffffffffffffffffffffffffffff1673ffffffffffffffffffffffffffffffffffffffff16815260200190815260200160002060006101000a81548160ff0219169083151502179055506001600860003373ffffffffffffffffffffffffffffffffffffffff1673ffffffffffffffffffffffffffffffffffffffff16815260200190815260200160002060006101000a81548160ff021916908315150217905550565b600060025434610d8e9190611490565b905080600160009054906101000a900473ffffffffffffffffffffffffffffffffffffffff1673ffffffffffffffffffffffffffffffffffffffff166370a08231306040518263ffffffff1660e01b8152600401610dec919061122f565b60206040518083038186803b158015610e0457600080fd5b505afa158015610e18573d6000803e3d6000fd5b505050506040513d601f19601f82011682018060405250810190610e3c91906110cd565b1015610e4757600080fd5b600160009054906101000a900473ffffffffffffffffffffffffffffffffffffffff1673ffffffffffffffffffffffffffffffffffffffff1663a9059cbb33836040518363ffffffff1660e01b8152600401610ea49291906112c6565b602060405180830381600087803b158015610ebe57600080fd5b505af1158015610ed2573d6000803e3d6000fd5b505050506040513d601f19601f82011682018060405250810190610ef6919061107b565b507f8daf503382665d950e449b86172be5222275c90f4ddf69c29fdaa8237a562a6d33600160009054906101000a900473ffffffffffffffffffffffffffffffffffffffff1683600254604051610f509493929190611281565b60405180910390a150565b600160009054906101000a900473ffffffffffffffffffffffffffffffffffffffff1681565b60058181548110610f9157600080fd5b906000526020600020016000915054906101000a900473ffffffffffffffffffffffffffffffffffffffff1681565b600081359050610fcf816117b5565b92915050565b600081359050610fe4816117cc565b92915050565b600081519050610ff9816117e3565b92915050565b60008135905061100e816117fa565b92915050565b600081519050611023816117fa565b92915050565b60006020828403121561103b57600080fd5b600061104984828501610fc0565b91505092915050565b60006020828403121561106457600080fd5b600061107284828501610fd5565b91505092915050565b60006020828403121561108d57600080fd5b600061109b84828501610fea565b91505092915050565b6000602082840312156110b657600080fd5b60006110c484828501610fff565b91505092915050565b6000602082840312156110df57600080fd5b60006110ed84828501611014565b91505092915050565b6110ff8161151e565b82525050565b61110e81611542565b82525050565b61111d81611578565b82525050565b600061112e826113e2565b61113881856113f8565b935061114881856020860161159c565b611151816116d7565b840191505092915050565b60006111696018836113f8565b9150611174826116e8565b602082019050919050565b600061118c6000836113ed565b915061119782611711565b600082019050919050565b60006111af6014836113f8565b91506111ba82611714565b602082019050919050565b60006111d26012836113f8565b91506111dd8261173d565b602082019050919050565b60006111f56023836113f8565b915061120082611766565b604082019050919050565b6112148161156e565b82525050565b60006112258261117f565b9150819050919050565b600060208201905061124460008301846110f6565b92915050565b600060608201905061125f60008301866110f6565b61126c60208301856110f6565b611279604083018461120b565b949350505050565b600060808201905061129660008301876110f6565b6112a360208301866110f6565b6112b0604083018561120b565b6112bd606083018461120b565b95945050505050565b60006040820190506112db60008301856110f6565b6112e8602083018461120b565b9392505050565b60006020820190506113046000830184611105565b92915050565b600060208201905061131f6000830184611114565b92915050565b6000602082019050818103600083015261133f8184611123565b905092915050565b600060208201905081810360008301526113608161115c565b9050919050565b60006020820190508181036000830152611380816111a2565b9050919050565b600060208201905081810360008301526113a0816111c5565b9050919050565b600060208201905081810360008301526113c0816111e8565b9050919050565b60006020820190506113dc600083018461120b565b92915050565b600081519050919050565b600081905092915050565b600082825260208201905092915050565b60006114148261156e565b915061141f8361156e565b9250827fffffffffffffffffffffffffffffffffffffffffffffffffffffffffffffffff038211156114545761145361164a565b5b828201905092915050565b600061146a8261156e565b91506114758361156e565b92508261148557611484611679565b5b828204905092915050565b600061149b8261156e565b91506114a68361156e565b9250817fffffffffffffffffffffffffffffffffffffffffffffffffffffffffffffffff04831182151516156114df576114de61164a565b5b828202905092915050565b60006114f58261156e565b91506115008361156e565b9250828210156115135761151261164a565b5b828203905092915050565b60006115298261154e565b9050919050565b600061153b8261154e565b9050919050565b60008115159050919050565b600073ffffffffffffffffffffffffffffffffffffffff82169050919050565b6000819050919050565b60006115838261158a565b9050919050565b60006115958261154e565b9050919050565b60005b838110156115ba57808201518184015260208101905061159f565b838111156115c9576000848401525b50505050565b600060028204905060018216806115e757607f821691505b602082108114156115fb576115fa6116a8565b5b50919050565b600061160c8261156e565b91507fffffffffffffffffffffffffffffffffffffffffffffffffffffffffffffffff82141561163f5761163e61164a565b5b600182019050919050565b7f4e487b7100000000000000000000000000000000000000000000000000000000600052601160045260246000fd5b7f4e487b7100000000000000000000000000000000000000000000000000000000600052601260045260246000fd5b7f4e487b7100000000000000000000000000000000000000000000000000000000600052602260045260246000fd5b6000601f19601f8301169050919050565b7f4661696c656420746f2077697468647261772045746865720000000000000000600082015250565b50565b7f63616c6c6572206d757374206265206f776e6572000000000000000000000000600082015250565b7f616d6f756e742063616e6e6f7420626520300000000000000000000000000000600082015250565b7f43616e6e6f7420756e7374616b65206d6f726520657468207468616e2073746160008201527f6b65640000000000000000000000000000000000000000000000000000000000602082015250565b6117be8161151e565b81146117c957600080fd5b50565b6117d581611530565b81146117e057600080fd5b50565b6117ec81611542565b81146117f757600080fd5b50565b6118038161156e565b811461180e57600080fd5b5056fea26469706673582212209c201ce08b95b5ec536b9438a985034909349f98f9219a2a4e1c4453a0b06c5064736f6c63430008030033",
  "immutableReferences": {},
  "source": "// SPDX-License-Identifier: MIT\r\n\r\npragma solidity ^0.8.3;\r\n\r\nimport \"./ThesisToken.sol\";\r\n\r\ncontract EthSwap {\r\n    string public name = \"EthSwap for Token\";\r\n    ThesisToken public token;\r\n    uint public rate = 100;\r\n    uint public stakingRate = 10;\r\n\r\n    address public owner;\r\n\r\n    // address of staking addresses;\r\n    address[] public stakers;\r\n\r\n    // the stalking balance for a specific User\r\n    mapping(address => uint) public stakingBalance;\r\n\r\n    // check if the address has Staked\r\n    mapping(address => bool) public hasStaked;\r\n\r\n    mapping(address => bool) public isStaking;\r\n\r\n    event TokenPurchased(\r\n        address account,\r\n        address token,\r\n        uint amount,\r\n        uint rate\r\n    );\r\n\r\n    event TokensSold(\r\n        address account,\r\n        address token,\r\n        uint amount,\r\n        uint rate\r\n    );\r\n\r\n    // if variable in constructor -> then it needs to be passed in the migration\r\n    constructor(ThesisToken _token) public {\r\n        token = _token;\r\n        owner = msg.sender;\r\n    }\r\n\r\n    // payable to send ether\r\n    function buyTokens() public payable {\r\n        // redemption rate = # of tokens they receive for 1 ether\r\n        // Amount of Ethereum * Redemption rate\r\n        // Calculate the number of tokens to buy -> msg.value is the amount of ether that is sended\r\n        uint tokenAmount = msg.value * rate;\r\n\r\n        // integrate a require -> check if ethSwap balance of thesis tokens is enough -> this is the address of the ethSwap Contract\r\n        // require ethSwap have enough tokens\r\n        require(\r\n            token.balanceOf(address(this)) >= tokenAmount\r\n        );\r\n\r\n        token.transfer(msg.sender, tokenAmount);\r\n\r\n        // trigger Event that tokens were purchased\r\n        emit TokenPurchased(msg.sender, address(token), tokenAmount, rate);\r\n    }\r\n\r\n    function sellTokens(uint _amount) public {\r\n        // User can't sell more tokens than they have\r\n        require(token.balanceOf(msg.sender) >= _amount);\r\n\r\n        // calculate the amount of Ether\r\n        uint etherAmount = _amount / rate;\r\n\r\n        // require that EthSwap has enough Ether\r\n        require(address(this).balance >= etherAmount);\r\n\r\n        // Perfom sale -> transfer Thesis Tokens back to EthSwap -> again use the address of the contract -> this\r\n        // we can not use the simple transfer function on an ERC-20 Token\r\n        // instead we have to use the transferFrom function -> to allow transfer from an address to EthSwap\r\n        token.transferFrom(msg.sender, address(this), _amount);\r\n        // this will also trigger approve function of the ERC-20 Token -> needs to be called inside a test\r\n\r\n        // -> we use transfer for native Ethereum\r\n        payable(msg.sender).transfer(etherAmount);\r\n\r\n        // emit an Event\r\n        emit TokensSold(msg.sender, address(token), _amount, rate);\r\n    }\r\n\r\n    // 1. Stakes Tokens (Deposit)\r\n    function stakeTokens() payable public {\r\n        // require amount to stake is greater than 0 \r\n        require(msg.value > 0, \"amount cannot be 0\");\r\n\r\n        //msg.sender.approve(msg.sender, msg.value);\r\n        // Transfer eth to this (tokenfarm) contract for staking\r\n        payable(owner).transfer(msg.value);\r\n\r\n        // Update staking balance\r\n        stakingBalance[msg.sender] =  stakingBalance[msg.sender] + msg.value;\r\n\r\n        // Add user to stakers array if they haven't staked already\r\n        if(!hasStaked[msg.sender]) {\r\n            // the stakers array should only contain addresses once\r\n            stakers.push(msg.sender);\r\n        }\r\n\r\n        // update staking status\r\n        hasStaked[msg.sender] = true;\r\n        isStaking[msg.sender] = true;\r\n    }\r\n    // 2. Issuing Tokens -> reward (triggered only by owner)\r\n    function issueToken() public {\r\n        // this functions should only be triggered by the owner of the smart contract\r\n        require(msg.sender == owner, \"caller must be owner\");\r\n\r\n        // loop through stakers array\r\n        for(uint i=0; i < stakers.length; i++) {\r\n            address recipient = stakers[i];\r\n            // for each staker get the balance of the staked thesis Tokens -> stakingBalance\r\n            uint balance =  stakingBalance[recipient];\r\n            if(balance > 0 ) {\r\n                // send them the same amount of thesis Tokens\r\n            uint amount = balance * stakingRate;\r\n            token.transfer(recipient, amount);\r\n            }\r\n        }\r\n    }\r\n\r\n    // 3. Unstaking Tokens (Withdraw) -> allow investor to remove tokens from the application -> from the tokaneFarm\r\n    function unstakeTokens(address payable _to) public payable {\r\n        // Fetch staking balance\r\n        //uint balance = stakingBalance[msg.sender]; // here ERROR? Maybe 0?\r\n        //uint balance = 1000000000000000000;\r\n        // require amount greater than 0\r\n        uint balance = stakingBalance[_to];\r\n        require(balance >= msg.value , \"Cannot unstake more eth than staked\");\r\n\r\n        // transfer eth to this contract for staking\r\n        //payable(msg.sender).transfer(unstakeAmount);\r\n\r\n        (bool succeed, bytes memory data) = _to.call{value: msg.value}(\"\");\r\n        require(succeed, \"Failed to withdraw Ether\");\r\n\r\n        // reset the staking balance\r\n        stakingBalance[_to] = balance - msg.value;\r\n\r\n        if(stakingBalance[_to] == 0) {\r\n            // update staking status\r\n            isStaking[_to] = false;\r\n        } \r\n    }\r\n}",
  "sourcePath": "C:\\uni\\THESIS(Master)\\Project\\smart_contracts\\src\\contracts\\EthSwap.sol",
  "compiler": {
    "name": "solc",
    "version": "0.8.3+commit.8d00100c.Emscripten.clang"
  },
  "schemaVersion": "3.4.3",
  "updatedAt": "2021-11-18T21:15:43.763Z",
  "networkType": "ethereum",
  "devdoc": {
    "kind": "dev",
    "methods": {},
    "version": 1
  },
  "userdoc": {
    "kind": "user",
    "methods": {},
    "version": 1
  }
}