{
  "contractName": "EthSwap",
  "abi": [
    {
      "inputs": [
        {
          "internalType": "contract ThesisToken",
          "name": "_token",
          "type": "address"
        }
      ],
      "stateMutability": "nonpayable",
      "type": "constructor"
    },
    {
      "anonymous": false,
      "inputs": [
        {
          "indexed": false,
          "internalType": "address",
          "name": "account",
          "type": "address"
        },
        {
          "indexed": false,
          "internalType": "address",
          "name": "token",
          "type": "address"
        },
        {
          "indexed": false,
          "internalType": "uint256",
          "name": "amount",
          "type": "uint256"
        },
        {
          "indexed": false,
          "internalType": "uint256",
          "name": "rate",
          "type": "uint256"
        }
      ],
      "name": "TokenPurchased",
      "type": "event"
    },
    {
      "anonymous": false,
      "inputs": [
        {
          "indexed": false,
          "internalType": "address",
          "name": "account",
          "type": "address"
        },
        {
          "indexed": false,
          "internalType": "address",
          "name": "token",
          "type": "address"
        },
        {
          "indexed": false,
          "internalType": "uint256",
          "name": "amount",
          "type": "uint256"
        },
        {
          "indexed": false,
          "internalType": "uint256",
          "name": "rate",
          "type": "uint256"
        }
      ],
      "name": "TokensSold",
      "type": "event"
    },
    {
      "inputs": [
        {
          "internalType": "address",
          "name": "",
          "type": "address"
        }
      ],
      "name": "hasStaked",
      "outputs": [
        {
          "internalType": "bool",
          "name": "",
          "type": "bool"
        }
      ],
      "stateMutability": "view",
      "type": "function",
      "constant": true
    },
    {
      "inputs": [
        {
          "internalType": "address",
          "name": "",
          "type": "address"
        }
      ],
      "name": "isStaking",
      "outputs": [
        {
          "internalType": "bool",
          "name": "",
          "type": "bool"
        }
      ],
      "stateMutability": "view",
      "type": "function",
      "constant": true
    },
    {
      "inputs": [],
      "name": "name",
      "outputs": [
        {
          "internalType": "string",
          "name": "",
          "type": "string"
        }
      ],
      "stateMutability": "view",
      "type": "function",
      "constant": true
    },
    {
      "inputs": [],
      "name": "owner",
      "outputs": [
        {
          "internalType": "address",
          "name": "",
          "type": "address"
        }
      ],
      "stateMutability": "view",
      "type": "function",
      "constant": true
    },
    {
      "inputs": [],
      "name": "rate",
      "outputs": [
        {
          "internalType": "uint256",
          "name": "",
          "type": "uint256"
        }
      ],
      "stateMutability": "view",
      "type": "function",
      "constant": true
    },
    {
      "inputs": [
        {
          "internalType": "uint256",
          "name": "",
          "type": "uint256"
        }
      ],
      "name": "stakers",
      "outputs": [
        {
          "internalType": "address",
          "name": "",
          "type": "address"
        }
      ],
      "stateMutability": "view",
      "type": "function",
      "constant": true
    },
    {
      "inputs": [
        {
          "internalType": "address",
          "name": "",
          "type": "address"
        }
      ],
      "name": "stakingBalance",
      "outputs": [
        {
          "internalType": "uint256",
          "name": "",
          "type": "uint256"
        }
      ],
      "stateMutability": "view",
      "type": "function",
      "constant": true
    },
    {
      "inputs": [],
      "name": "stakingRate",
      "outputs": [
        {
          "internalType": "uint256",
          "name": "",
          "type": "uint256"
        }
      ],
      "stateMutability": "view",
      "type": "function",
      "constant": true
    },
    {
      "inputs": [],
      "name": "token",
      "outputs": [
        {
          "internalType": "contract ThesisToken",
          "name": "",
          "type": "address"
        }
      ],
      "stateMutability": "view",
      "type": "function",
      "constant": true
    },
    {
      "inputs": [],
      "name": "buyTokens",
      "outputs": [],
      "stateMutability": "payable",
      "type": "function",
      "payable": true
    },
    {
      "inputs": [
        {
          "internalType": "uint256",
          "name": "_amount",
          "type": "uint256"
        }
      ],
      "name": "sellTokens",
      "outputs": [],
      "stateMutability": "nonpayable",
      "type": "function"
    },
    {
      "inputs": [],
      "name": "stakeTokens",
      "outputs": [],
      "stateMutability": "payable",
      "type": "function",
      "payable": true
    },
    {
      "inputs": [],
      "name": "issueToken",
      "outputs": [],
      "stateMutability": "nonpayable",
      "type": "function"
    },
    {
      "inputs": [],
      "name": "unstakeTokens",
      "outputs": [],
      "stateMutability": "payable",
      "type": "function",
      "payable": true
    }
  ],
  "bytecode": "0x60806040526040518060400160405280601181526020017f4574685377617020666f7220546f6b656e000000000000000000000000000000815250600090805190602001906200005192919062000118565b506064600255600a6003553480156200006957600080fd5b50604051620019703803806200197083398181016040528101906200008f9190620001df565b80600160006101000a81548173ffffffffffffffffffffffffffffffffffffffff021916908373ffffffffffffffffffffffffffffffffffffffff16021790555033600460006101000a81548173ffffffffffffffffffffffffffffffffffffffff021916908373ffffffffffffffffffffffffffffffffffffffff16021790555050620002d2565b828054620001269062000253565b90600052602060002090601f0160209004810192826200014a576000855562000196565b82601f106200016557805160ff191683800117855562000196565b8280016001018555821562000196579182015b828111156200019557825182559160200191906001019062000178565b5b509050620001a59190620001a9565b5090565b5b80821115620001c4576000816000905550600101620001aa565b5090565b600081519050620001d981620002b8565b92915050565b600060208284031215620001f257600080fd5b60006200020284828501620001c8565b91505092915050565b6000620002188262000233565b9050919050565b60006200022c826200020b565b9050919050565b600073ffffffffffffffffffffffffffffffffffffffff82169050919050565b600060028204905060018216806200026c57607f821691505b6020821081141562000283576200028262000289565b5b50919050565b7f4e487b7100000000000000000000000000000000000000000000000000000000600052602260045260246000fd5b620002c3816200021f565b8114620002cf57600080fd5b50565b61168e80620002e26000396000f3fe6080604052600436106100dd5760003560e01c8063a5ce413b1161007f578063ce46643b11610059578063ce46643b1461028f578063d0febe4c14610299578063fc0c546a146102a3578063fd5e6dd1146102ce576100dd565b8063a5ce413b1461021d578063c63a6ad214610227578063c93c8f3414610252576100dd565b80636c11bcd3116100bb5780636c11bcd3146101755780636f49712b1461019e5780638da5cb5b146101db578063a1ee8c7814610206576100dd565b806306fdde03146100e25780632c4e722e1461010d57806345bc78ab14610138575b600080fd5b3480156100ee57600080fd5b506100f761030b565b604051610104919061128d565b60405180910390f35b34801561011957600080fd5b50610122610399565b60405161012f919061130f565b60405180910390f35b34801561014457600080fd5b5061015f600480360381019061015a9190610f98565b61039f565b60405161016c919061130f565b60405180910390f35b34801561018157600080fd5b5061019c60048036038101906101979190610fea565b6103b7565b005b3480156101aa57600080fd5b506101c560048036038101906101c09190610f98565b610602565b6040516101d29190611257565b60405180910390f35b3480156101e757600080fd5b506101f0610622565b6040516101fd9190611197565b60405180910390f35b34801561021257600080fd5b5061021b610648565b005b61022561087a565b005b34801561023357600080fd5b5061023c610a3b565b604051610249919061130f565b60405180910390f35b34801561025e57600080fd5b5061027960048036038101906102749190610f98565b610a41565b6040516102869190611257565b60405180910390f35b610297610a61565b005b6102a1610d02565b005b3480156102af57600080fd5b506102b8610edf565b6040516102c59190611272565b60405180910390f35b3480156102da57600080fd5b506102f560048036038101906102f09190610fea565b610f05565b6040516103029190611197565b60405180910390f35b60008054610318906114fa565b80601f0160208091040260200160405190810160405280929190818152602001828054610344906114fa565b80156103915780601f1061036657610100808354040283529160200191610391565b820191906000526020600020905b81548152906001019060200180831161037457829003601f168201915b505050505081565b60025481565b60066020528060005260406000206000915090505481565b80600160009054906101000a900473ffffffffffffffffffffffffffffffffffffffff1673ffffffffffffffffffffffffffffffffffffffff166370a08231336040518263ffffffff1660e01b81526004016104139190611197565b60206040518083038186803b15801561042b57600080fd5b505afa15801561043f573d6000803e3d6000fd5b505050506040513d601f19601f820116820180604052508101906104639190611013565b101561046e57600080fd5b60006002548261047e919061139c565b9050803073ffffffffffffffffffffffffffffffffffffffff163110156104a457600080fd5b600160009054906101000a900473ffffffffffffffffffffffffffffffffffffffff1673ffffffffffffffffffffffffffffffffffffffff166323b872dd3330856040518463ffffffff1660e01b8152600401610503939291906111b2565b602060405180830381600087803b15801561051d57600080fd5b505af1158015610531573d6000803e3d6000fd5b505050506040513d601f19601f820116820180604052508101906105559190610fc1565b503373ffffffffffffffffffffffffffffffffffffffff166108fc829081150290604051600060405180830381858888f1935050505015801561059c573d6000803e3d6000fd5b507f697c42d55a5e1fed3f464ec6f38b32546a0bd368dc8068b065c67566d73f329033600160009054906101000a900473ffffffffffffffffffffffffffffffffffffffff16846002546040516105f694939291906111e9565b60405180910390a15050565b60086020528060005260406000206000915054906101000a900460ff1681565b600460009054906101000a900473ffffffffffffffffffffffffffffffffffffffff1681565b600460009054906101000a900473ffffffffffffffffffffffffffffffffffffffff1673ffffffffffffffffffffffffffffffffffffffff163373ffffffffffffffffffffffffffffffffffffffff16146106d8576040517f08c379a00000000000000000000000000000000000000000000000000000000081526004016106cf906112af565b60405180910390fd5b60005b60058054905081101561087757600060058281548110610724577f4e487b7100000000000000000000000000000000000000000000000000000000600052603260045260246000fd5b9060005260206000200160009054906101000a900473ffffffffffffffffffffffffffffffffffffffff1690506000600660008373ffffffffffffffffffffffffffffffffffffffff1673ffffffffffffffffffffffffffffffffffffffff1681526020019081526020016000205490506000811115610862576000600354826107ae91906113cd565b9050600160009054906101000a900473ffffffffffffffffffffffffffffffffffffffff1673ffffffffffffffffffffffffffffffffffffffff1663a9059cbb84836040518363ffffffff1660e01b815260040161080d92919061122e565b602060405180830381600087803b15801561082757600080fd5b505af115801561083b573d6000803e3d6000fd5b505050506040513d601f19601f8201168201806040525081019061085f9190610fc1565b50505b5050808061086f9061152c565b9150506106db565b50565b6000600660003373ffffffffffffffffffffffffffffffffffffffff1673ffffffffffffffffffffffffffffffffffffffff16815260200190815260200160002054905034811015610901576040517f08c379a00000000000000000000000000000000000000000000000000000000081526004016108f8906112ef565b60405180910390fd5b3373ffffffffffffffffffffffffffffffffffffffff166108fc349081150290604051600060405180830381858888f19350505050158015610947573d6000803e3d6000fd5b5034816109549190611427565b600660003373ffffffffffffffffffffffffffffffffffffffff1673ffffffffffffffffffffffffffffffffffffffff168152602001908152602001600020819055506000600660003373ffffffffffffffffffffffffffffffffffffffff1673ffffffffffffffffffffffffffffffffffffffff168152602001908152602001600020541415610a38576000600860003373ffffffffffffffffffffffffffffffffffffffff1673ffffffffffffffffffffffffffffffffffffffff16815260200190815260200160002060006101000a81548160ff0219169083151502179055505b50565b60035481565b60076020528060005260406000206000915054906101000a900460ff1681565b60003411610aa4576040517f08c379a0000000000000000000000000000000000000000000000000000000008152600401610a9b906112cf565b60405180910390fd5b600460009054906101000a900473ffffffffffffffffffffffffffffffffffffffff1673ffffffffffffffffffffffffffffffffffffffff166108fc349081150290604051600060405180830381858888f19350505050158015610b0c573d6000803e3d6000fd5b5034600660003373ffffffffffffffffffffffffffffffffffffffff1673ffffffffffffffffffffffffffffffffffffffff16815260200190815260200160002054610b589190611346565b600660003373ffffffffffffffffffffffffffffffffffffffff1673ffffffffffffffffffffffffffffffffffffffff16815260200190815260200160002081905550600760003373ffffffffffffffffffffffffffffffffffffffff1673ffffffffffffffffffffffffffffffffffffffff16815260200190815260200160002060009054906101000a900460ff16610c50576005339080600181540180825580915050600190039060005260206000200160009091909190916101000a81548173ffffffffffffffffffffffffffffffffffffffff021916908373ffffffffffffffffffffffffffffffffffffffff1602179055505b6001600760003373ffffffffffffffffffffffffffffffffffffffff1673ffffffffffffffffffffffffffffffffffffffff16815260200190815260200160002060006101000a81548160ff0219169083151502179055506001600860003373ffffffffffffffffffffffffffffffffffffffff1673ffffffffffffffffffffffffffffffffffffffff16815260200190815260200160002060006101000a81548160ff021916908315150217905550565b600060025434610d1291906113cd565b905080600160009054906101000a900473ffffffffffffffffffffffffffffffffffffffff1673ffffffffffffffffffffffffffffffffffffffff166370a08231306040518263ffffffff1660e01b8152600401610d709190611197565b60206040518083038186803b158015610d8857600080fd5b505afa158015610d9c573d6000803e3d6000fd5b505050506040513d601f19601f82011682018060405250810190610dc09190611013565b1015610dcb57600080fd5b600160009054906101000a900473ffffffffffffffffffffffffffffffffffffffff1673ffffffffffffffffffffffffffffffffffffffff1663a9059cbb33836040518363ffffffff1660e01b8152600401610e2892919061122e565b602060405180830381600087803b158015610e4257600080fd5b505af1158015610e56573d6000803e3d6000fd5b505050506040513d601f19601f82011682018060405250810190610e7a9190610fc1565b507f8daf503382665d950e449b86172be5222275c90f4ddf69c29fdaa8237a562a6d33600160009054906101000a900473ffffffffffffffffffffffffffffffffffffffff1683600254604051610ed494939291906111e9565b60405180910390a150565b600160009054906101000a900473ffffffffffffffffffffffffffffffffffffffff1681565b60058181548110610f1557600080fd5b906000526020600020016000915054906101000a900473ffffffffffffffffffffffffffffffffffffffff1681565b600081359050610f5381611613565b92915050565b600081519050610f688161162a565b92915050565b600081359050610f7d81611641565b92915050565b600081519050610f9281611641565b92915050565b600060208284031215610faa57600080fd5b6000610fb884828501610f44565b91505092915050565b600060208284031215610fd357600080fd5b6000610fe184828501610f59565b91505092915050565b600060208284031215610ffc57600080fd5b600061100a84828501610f6e565b91505092915050565b60006020828403121561102557600080fd5b600061103384828501610f83565b91505092915050565b6110458161145b565b82525050565b6110548161146d565b82525050565b611063816114a3565b82525050565b60006110748261132a565b61107e8185611335565b935061108e8185602086016114c7565b61109781611602565b840191505092915050565b60006110af601483611335565b91507f63616c6c6572206d757374206265206f776e65720000000000000000000000006000830152602082019050919050565b60006110ef601283611335565b91507f616d6f756e742063616e6e6f74206265203000000000000000000000000000006000830152602082019050919050565b600061112f602383611335565b91507f43616e6e6f7420756e7374616b65206d6f726520657468207468616e2073746160008301527f6b656400000000000000000000000000000000000000000000000000000000006020830152604082019050919050565b61119181611499565b82525050565b60006020820190506111ac600083018461103c565b92915050565b60006060820190506111c7600083018661103c565b6111d4602083018561103c565b6111e16040830184611188565b949350505050565b60006080820190506111fe600083018761103c565b61120b602083018661103c565b6112186040830185611188565b6112256060830184611188565b95945050505050565b6000604082019050611243600083018561103c565b6112506020830184611188565b9392505050565b600060208201905061126c600083018461104b565b92915050565b6000602082019050611287600083018461105a565b92915050565b600060208201905081810360008301526112a78184611069565b905092915050565b600060208201905081810360008301526112c8816110a2565b9050919050565b600060208201905081810360008301526112e8816110e2565b9050919050565b6000602082019050818103600083015261130881611122565b9050919050565b60006020820190506113246000830184611188565b92915050565b600081519050919050565b600082825260208201905092915050565b600061135182611499565b915061135c83611499565b9250827fffffffffffffffffffffffffffffffffffffffffffffffffffffffffffffffff0382111561139157611390611575565b5b828201905092915050565b60006113a782611499565b91506113b283611499565b9250826113c2576113c16115a4565b5b828204905092915050565b60006113d882611499565b91506113e383611499565b9250817fffffffffffffffffffffffffffffffffffffffffffffffffffffffffffffffff048311821515161561141c5761141b611575565b5b828202905092915050565b600061143282611499565b915061143d83611499565b9250828210156114505761144f611575565b5b828203905092915050565b600061146682611479565b9050919050565b60008115159050919050565b600073ffffffffffffffffffffffffffffffffffffffff82169050919050565b6000819050919050565b60006114ae826114b5565b9050919050565b60006114c082611479565b9050919050565b60005b838110156114e55780820151818401526020810190506114ca565b838111156114f4576000848401525b50505050565b6000600282049050600182168061151257607f821691505b60208210811415611526576115256115d3565b5b50919050565b600061153782611499565b91507fffffffffffffffffffffffffffffffffffffffffffffffffffffffffffffffff82141561156a57611569611575565b5b600182019050919050565b7f4e487b7100000000000000000000000000000000000000000000000000000000600052601160045260246000fd5b7f4e487b7100000000000000000000000000000000000000000000000000000000600052601260045260246000fd5b7f4e487b7100000000000000000000000000000000000000000000000000000000600052602260045260246000fd5b6000601f19601f8301169050919050565b61161c8161145b565b811461162757600080fd5b50565b6116338161146d565b811461163e57600080fd5b50565b61164a81611499565b811461165557600080fd5b5056fea2646970667358221220139ae47f908b6b54cacd2ffb14a90c864f1d3032d8f84b78cc5e23468008e19164736f6c63430008000033",
  "immutableReferences": {},
  "source": "// SPDX-License-Identifier: MIT\r\n\r\npragma solidity ^0.8.0;\r\n\r\nimport \"./ThesisToken.sol\";\r\n\r\ncontract EthSwap {\r\n    string public name = \"EthSwap for Token\";\r\n    ThesisToken public token;\r\n    uint public rate = 100;\r\n    uint public stakingRate = 10;\r\n\r\n    address public owner;\r\n\r\n    // address of staking addresses;\r\n    address[] public stakers;\r\n\r\n    // the stalking balance for a specific User\r\n    mapping(address => uint) public stakingBalance;\r\n\r\n    // check if the address has Staked\r\n    mapping(address => bool) public hasStaked;\r\n\r\n    mapping(address => bool) public isStaking;\r\n\r\n    event TokenPurchased(\r\n        address account,\r\n        address token,\r\n        uint amount,\r\n        uint rate\r\n    );\r\n\r\n    event TokensSold(\r\n        address account,\r\n        address token,\r\n        uint amount,\r\n        uint rate\r\n    );\r\n\r\n    // if variable in constructor -> then it needs to be passed in the migration\r\n    constructor(ThesisToken _token) public {\r\n        token = _token;\r\n        owner = msg.sender;\r\n    }\r\n\r\n    // payable to send ether\r\n    function buyTokens() public payable {\r\n        // redemption rate = # of tokens they receive for 1 ether\r\n        // Amount of Ethereum * Redemption rate\r\n        // Calculate the number of tokens to buy -> msg.value is the amount of ether that is sended\r\n        uint tokenAmount = msg.value * rate;\r\n\r\n        // integrate a require -> check if ethSwap balance of thesis tokens is enough -> this is the address of the ethSwap Contract\r\n        // require ethSwap have enough tokens\r\n        require(\r\n            token.balanceOf(address(this)) >= tokenAmount\r\n        );\r\n\r\n        token.transfer(msg.sender, tokenAmount);\r\n\r\n        // trigger Event that tokens were purchased\r\n        emit TokenPurchased(msg.sender, address(token), tokenAmount, rate);\r\n    }\r\n\r\n    function sellTokens(uint _amount) public {\r\n        // User can't sell more tokens than they have\r\n        require(token.balanceOf(msg.sender) >= _amount);\r\n\r\n        // calculate the amount of Ether\r\n        uint etherAmount = _amount / rate;\r\n\r\n        // require that EthSwap has enough Ether\r\n        require(address(this).balance >= etherAmount);\r\n\r\n        // Perfom sale -> transfer Thesis Tokens back to EthSwap -> again use the address of the contract -> this\r\n        // we can not use the simple transfer function on an ERC-20 Token\r\n        // instead we have to use the transferFrom function -> to allow transfer from an address to EthSwap\r\n        token.transferFrom(msg.sender, address(this), _amount);\r\n        // this will also trigger approve function of the ERC-20 Token -> needs to be called inside a test\r\n\r\n        // -> we use transfer for native Ethereum\r\n        payable(msg.sender).transfer(etherAmount);\r\n\r\n        // emit an Event\r\n        emit TokensSold(msg.sender, address(token), _amount, rate);\r\n    }\r\n\r\n    // 1. Stakes Tokens (Deposit)\r\n    function stakeTokens() payable public {\r\n        // require amount to stake is greater than 0 \r\n        require(msg.value > 0, \"amount cannot be 0\");\r\n\r\n        //msg.sender.approve(msg.sender, msg.value);\r\n        // Transfer eth to this (tokenfarm) contract for staking\r\n        payable(owner).transfer(msg.value);\r\n\r\n        // Update staking balance\r\n        stakingBalance[msg.sender] =  stakingBalance[msg.sender] + msg.value;\r\n\r\n        // Add user to stakers array if they haven't staked already\r\n        if(!hasStaked[msg.sender]) {\r\n            // the stakers array should only contain addresses once\r\n            stakers.push(msg.sender);\r\n        }\r\n\r\n        // update staking status\r\n        hasStaked[msg.sender] = true;\r\n        isStaking[msg.sender] = true;\r\n    }\r\n    // 2. Issuing Tokens -> reward (triggered only by owner)\r\n    function issueToken() public {\r\n        // this functions should only be triggered by the owner of the smart contract\r\n        require(msg.sender == owner, \"caller must be owner\");\r\n\r\n        // loop through stakers array\r\n        for(uint i=0; i < stakers.length; i++) {\r\n            address recipient = stakers[i];\r\n            // for each staker get the balance of the staked thesis Tokens -> stakingBalance\r\n            uint balance =  stakingBalance[recipient];\r\n            if(balance > 0 ) {\r\n                // send them the same amount of thesis Tokens\r\n            uint amount = balance * stakingRate;\r\n            token.transfer(recipient, amount);\r\n            }\r\n        }\r\n    }\r\n\r\n    // 3. Unstaking Tokens (Withdraw) -> allow investor to remove tokens from the application -> from the tokaneFarm\r\n    function unstakeTokens() payable public {\r\n\r\n        // Fetch staking balance\r\n        //uint balance = stakingBalance[msg.sender]; // here ERROR? Maybe 0?\r\n        //uint balance = 1000000000000000000;\r\n        // require amount greater than 0\r\n        uint balance = stakingBalance[msg.sender];\r\n        require(balance >= msg.value , \"Cannot unstake more eth than staked\");\r\n\r\n        // transfer eth to this contract for staking\r\n        payable(msg.sender).transfer(msg.value);\r\n\r\n        // reset the staking balance\r\n        stakingBalance[msg.sender] = balance - msg.value;\r\n\r\n        if(stakingBalance[msg.sender] == 0) {\r\n            // update staking status\r\n            isStaking[msg.sender] = false;\r\n        } \r\n    }\r\n}",
  "sourcePath": "C:\\uni\\THESIS(Master)\\Project\\smart_contracts\\src\\contracts\\EthSwap.sol",
  "compiler": {
    "name": "solc",
    "version": "0.8.0+commit.c7dfd78e.Emscripten.clang"
  },
  "schemaVersion": "3.4.3",
  "updatedAt": "2021-11-14T15:41:35.974Z",
  "networkType": "ethereum",
  "devdoc": {
    "kind": "dev",
    "methods": {},
    "version": 1
  },
  "userdoc": {
    "kind": "user",
    "methods": {},
    "version": 1
  }
}