{
  "contractName": "EthSwap",
  "abi": [
    {
      "inputs": [
        {
          "internalType": "contract ThesisToken",
          "name": "_token",
          "type": "address"
        }
      ],
      "stateMutability": "nonpayable",
      "type": "constructor"
    },
    {
      "anonymous": false,
      "inputs": [
        {
          "indexed": false,
          "internalType": "address",
          "name": "account",
          "type": "address"
        },
        {
          "indexed": false,
          "internalType": "address",
          "name": "token",
          "type": "address"
        },
        {
          "indexed": false,
          "internalType": "uint256",
          "name": "amount",
          "type": "uint256"
        },
        {
          "indexed": false,
          "internalType": "uint256",
          "name": "rate",
          "type": "uint256"
        }
      ],
      "name": "TokenPurchased",
      "type": "event"
    },
    {
      "anonymous": false,
      "inputs": [
        {
          "indexed": false,
          "internalType": "address",
          "name": "account",
          "type": "address"
        },
        {
          "indexed": false,
          "internalType": "address",
          "name": "token",
          "type": "address"
        },
        {
          "indexed": false,
          "internalType": "uint256",
          "name": "ethAmount",
          "type": "uint256"
        }
      ],
      "name": "TokenStaked",
      "type": "event"
    },
    {
      "anonymous": false,
      "inputs": [
        {
          "indexed": false,
          "internalType": "address",
          "name": "account",
          "type": "address"
        },
        {
          "indexed": false,
          "internalType": "address",
          "name": "token",
          "type": "address"
        },
        {
          "indexed": false,
          "internalType": "uint256",
          "name": "ethAmount",
          "type": "uint256"
        }
      ],
      "name": "TokenUnstaked",
      "type": "event"
    },
    {
      "anonymous": false,
      "inputs": [
        {
          "indexed": false,
          "internalType": "address",
          "name": "account",
          "type": "address"
        },
        {
          "indexed": false,
          "internalType": "address",
          "name": "token",
          "type": "address"
        },
        {
          "indexed": false,
          "internalType": "uint256",
          "name": "amount",
          "type": "uint256"
        },
        {
          "indexed": false,
          "internalType": "uint256",
          "name": "rate",
          "type": "uint256"
        }
      ],
      "name": "TokensSold",
      "type": "event"
    },
    {
      "inputs": [
        {
          "internalType": "address",
          "name": "",
          "type": "address"
        }
      ],
      "name": "hasStaked",
      "outputs": [
        {
          "internalType": "bool",
          "name": "",
          "type": "bool"
        }
      ],
      "stateMutability": "view",
      "type": "function",
      "constant": true
    },
    {
      "inputs": [
        {
          "internalType": "address",
          "name": "",
          "type": "address"
        }
      ],
      "name": "isStaking",
      "outputs": [
        {
          "internalType": "bool",
          "name": "",
          "type": "bool"
        }
      ],
      "stateMutability": "view",
      "type": "function",
      "constant": true
    },
    {
      "inputs": [],
      "name": "name",
      "outputs": [
        {
          "internalType": "string",
          "name": "",
          "type": "string"
        }
      ],
      "stateMutability": "view",
      "type": "function",
      "constant": true
    },
    {
      "inputs": [],
      "name": "owner",
      "outputs": [
        {
          "internalType": "address",
          "name": "",
          "type": "address"
        }
      ],
      "stateMutability": "view",
      "type": "function",
      "constant": true
    },
    {
      "inputs": [],
      "name": "rate",
      "outputs": [
        {
          "internalType": "uint256",
          "name": "",
          "type": "uint256"
        }
      ],
      "stateMutability": "view",
      "type": "function",
      "constant": true
    },
    {
      "inputs": [
        {
          "internalType": "uint256",
          "name": "",
          "type": "uint256"
        }
      ],
      "name": "stakers",
      "outputs": [
        {
          "internalType": "address",
          "name": "",
          "type": "address"
        }
      ],
      "stateMutability": "view",
      "type": "function",
      "constant": true
    },
    {
      "inputs": [
        {
          "internalType": "address",
          "name": "",
          "type": "address"
        }
      ],
      "name": "stakingBalance",
      "outputs": [
        {
          "internalType": "uint256",
          "name": "",
          "type": "uint256"
        }
      ],
      "stateMutability": "view",
      "type": "function",
      "constant": true
    },
    {
      "inputs": [],
      "name": "stakingRate",
      "outputs": [
        {
          "internalType": "uint256",
          "name": "",
          "type": "uint256"
        }
      ],
      "stateMutability": "view",
      "type": "function",
      "constant": true
    },
    {
      "inputs": [],
      "name": "token",
      "outputs": [
        {
          "internalType": "contract ThesisToken",
          "name": "",
          "type": "address"
        }
      ],
      "stateMutability": "view",
      "type": "function",
      "constant": true
    },
    {
      "inputs": [],
      "name": "buyTokens",
      "outputs": [],
      "stateMutability": "payable",
      "type": "function",
      "payable": true
    },
    {
      "inputs": [
        {
          "internalType": "uint256",
          "name": "_amount",
          "type": "uint256"
        }
      ],
      "name": "sellTokens",
      "outputs": [],
      "stateMutability": "nonpayable",
      "type": "function"
    },
    {
      "inputs": [],
      "name": "stakeTokens",
      "outputs": [],
      "stateMutability": "payable",
      "type": "function",
      "payable": true
    },
    {
      "inputs": [],
      "name": "issueToken",
      "outputs": [],
      "stateMutability": "nonpayable",
      "type": "function"
    },
    {
      "inputs": [
        {
          "internalType": "address payable",
          "name": "_to",
          "type": "address"
        },
        {
          "internalType": "uint256",
          "name": "_amount",
          "type": "uint256"
        }
      ],
      "name": "unstakeTokens",
      "outputs": [],
      "stateMutability": "nonpayable",
      "type": "function"
    }
  ],
  "bytecode": "0x60806040526040518060400160405280601181526020017f4574685377617020666f7220546f6b656e000000000000000000000000000000815250600090805190602001906200005192919062000118565b506064600255600a6003553480156200006957600080fd5b5060405162001c3b38038062001c3b83398181016040528101906200008f9190620001df565b80600160006101000a81548173ffffffffffffffffffffffffffffffffffffffff021916908373ffffffffffffffffffffffffffffffffffffffff16021790555033600460006101000a81548173ffffffffffffffffffffffffffffffffffffffff021916908373ffffffffffffffffffffffffffffffffffffffff16021790555050620002d2565b828054620001269062000253565b90600052602060002090601f0160209004810192826200014a576000855562000196565b82601f106200016557805160ff191683800117855562000196565b8280016001018555821562000196579182015b828111156200019557825182559160200191906001019062000178565b5b509050620001a59190620001a9565b5090565b5b80821115620001c4576000816000905550600101620001aa565b5090565b600081519050620001d981620002b8565b92915050565b600060208284031215620001f257600080fd5b60006200020284828501620001c8565b91505092915050565b6000620002188262000233565b9050919050565b60006200022c826200020b565b9050919050565b600073ffffffffffffffffffffffffffffffffffffffff82169050919050565b600060028204905060018216806200026c57607f821691505b6020821081141562000283576200028262000289565b5b50919050565b7f4e487b7100000000000000000000000000000000000000000000000000000000600052602260045260246000fd5b620002c3816200021f565b8114620002cf57600080fd5b50565b61195980620002e26000396000f3fe6080604052600436106100dd5760003560e01c8063c63a6ad21161007f578063d0febe4c11610059578063d0febe4c1461028f578063e89a173e14610299578063fc0c546a146102c2578063fd5e6dd1146102ed576100dd565b8063c63a6ad21461021d578063c93c8f3414610248578063ce46643b14610285576100dd565b80636c11bcd3116100bb5780636c11bcd3146101755780636f49712b1461019e5780638da5cb5b146101db578063a1ee8c7814610206576100dd565b806306fdde03146100e25780632c4e722e1461010d57806345bc78ab14610138575b600080fd5b3480156100ee57600080fd5b506100f761032a565b6040516101049190611401565b60405180910390f35b34801561011957600080fd5b506101226103b8565b60405161012f91906114a3565b60405180910390f35b34801561014457600080fd5b5061015f600480360381019061015a91906110ac565b6103be565b60405161016c91906114a3565b60405180910390f35b34801561018157600080fd5b5061019c6004803603810190610197919061113a565b6103d6565b005b3480156101aa57600080fd5b506101c560048036038101906101c091906110ac565b610621565b6040516101d291906113cb565b60405180910390f35b3480156101e757600080fd5b506101f0610641565b6040516101fd91906112d4565b60405180910390f35b34801561021257600080fd5b5061021b610667565b005b34801561022957600080fd5b50610232610899565b60405161023f91906114a3565b60405180910390f35b34801561025457600080fd5b5061026f600480360381019061026a91906110ac565b61089f565b60405161027c91906113cb565b60405180910390f35b61028d6108bf565b005b610297610b54565b005b3480156102a557600080fd5b506102c060048036038101906102bb91906110d5565b610d31565b005b3480156102ce57600080fd5b506102d7610fde565b6040516102e491906113e6565b60405180910390f35b3480156102f957600080fd5b50610314600480360381019061030f919061113a565b611004565b60405161032191906112d4565b60405180910390f35b60008054610337906116e1565b80601f0160208091040260200160405190810160405280929190818152602001828054610363906116e1565b80156103b05780601f10610385576101008083540402835291602001916103b0565b820191906000526020600020905b81548152906001019060200180831161039357829003601f168201915b505050505081565b60025481565b60066020528060005260406000206000915090505481565b80600160009054906101000a900473ffffffffffffffffffffffffffffffffffffffff1673ffffffffffffffffffffffffffffffffffffffff166370a08231336040518263ffffffff1660e01b815260040161043291906112d4565b60206040518083038186803b15801561044a57600080fd5b505afa15801561045e573d6000803e3d6000fd5b505050506040513d601f19601f820116820180604052508101906104829190611163565b101561048d57600080fd5b60006002548261049d919061153b565b9050803073ffffffffffffffffffffffffffffffffffffffff163110156104c357600080fd5b600160009054906101000a900473ffffffffffffffffffffffffffffffffffffffff1673ffffffffffffffffffffffffffffffffffffffff166323b872dd3330856040518463ffffffff1660e01b815260040161052293929190611326565b602060405180830381600087803b15801561053c57600080fd5b505af1158015610550573d6000803e3d6000fd5b505050506040513d601f19601f820116820180604052508101906105749190611111565b503373ffffffffffffffffffffffffffffffffffffffff166108fc829081150290604051600060405180830381858888f193505050501580156105bb573d6000803e3d6000fd5b507f697c42d55a5e1fed3f464ec6f38b32546a0bd368dc8068b065c67566d73f329033600160009054906101000a900473ffffffffffffffffffffffffffffffffffffffff1684600254604051610615949392919061135d565b60405180910390a15050565b60086020528060005260406000206000915054906101000a900460ff1681565b600460009054906101000a900473ffffffffffffffffffffffffffffffffffffffff1681565b600460009054906101000a900473ffffffffffffffffffffffffffffffffffffffff1673ffffffffffffffffffffffffffffffffffffffff163373ffffffffffffffffffffffffffffffffffffffff16146106f7576040517f08c379a00000000000000000000000000000000000000000000000000000000081526004016106ee90611443565b60405180910390fd5b60005b60058054905081101561089657600060058281548110610743577f4e487b7100000000000000000000000000000000000000000000000000000000600052603260045260246000fd5b9060005260206000200160009054906101000a900473ffffffffffffffffffffffffffffffffffffffff1690506000600660008373ffffffffffffffffffffffffffffffffffffffff1673ffffffffffffffffffffffffffffffffffffffff1681526020019081526020016000205490506000811115610881576000600354826107cd919061156c565b9050600160009054906101000a900473ffffffffffffffffffffffffffffffffffffffff1673ffffffffffffffffffffffffffffffffffffffff1663a9059cbb84836040518363ffffffff1660e01b815260040161082c9291906113a2565b602060405180830381600087803b15801561084657600080fd5b505af115801561085a573d6000803e3d6000fd5b505050506040513d601f19601f8201168201806040525081019061087e9190611111565b50505b5050808061088e90611713565b9150506106fa565b50565b60035481565b60076020528060005260406000206000915054906101000a900460ff1681565b60003411610902576040517f08c379a00000000000000000000000000000000000000000000000000000000081526004016108f990611463565b60405180910390fd5b34600660003373ffffffffffffffffffffffffffffffffffffffff1673ffffffffffffffffffffffffffffffffffffffff1681526020019081526020016000205461094d91906114e5565b600660003373ffffffffffffffffffffffffffffffffffffffff1673ffffffffffffffffffffffffffffffffffffffff16815260200190815260200160002081905550600760003373ffffffffffffffffffffffffffffffffffffffff1673ffffffffffffffffffffffffffffffffffffffff16815260200190815260200160002060009054906101000a900460ff16610a45576005339080600181540180825580915050600190039060005260206000200160009091909190916101000a81548173ffffffffffffffffffffffffffffffffffffffff021916908373ffffffffffffffffffffffffffffffffffffffff1602179055505b6001600760003373ffffffffffffffffffffffffffffffffffffffff1673ffffffffffffffffffffffffffffffffffffffff16815260200190815260200160002060006101000a81548160ff0219169083151502179055506001600860003373ffffffffffffffffffffffffffffffffffffffff1673ffffffffffffffffffffffffffffffffffffffff16815260200190815260200160002060006101000a81548160ff0219169083151502179055507f17a90bf25d618e67de9bc66de5762d97787b11707d112164ab54c37111467f2b33600160009054906101000a900473ffffffffffffffffffffffffffffffffffffffff1634604051610b4a93929190611326565b60405180910390a1565b600060025434610b64919061156c565b905080600160009054906101000a900473ffffffffffffffffffffffffffffffffffffffff1673ffffffffffffffffffffffffffffffffffffffff166370a08231306040518263ffffffff1660e01b8152600401610bc291906112d4565b60206040518083038186803b158015610bda57600080fd5b505afa158015610bee573d6000803e3d6000fd5b505050506040513d601f19601f82011682018060405250810190610c129190611163565b1015610c1d57600080fd5b600160009054906101000a900473ffffffffffffffffffffffffffffffffffffffff1673ffffffffffffffffffffffffffffffffffffffff1663a9059cbb33836040518363ffffffff1660e01b8152600401610c7a9291906113a2565b602060405180830381600087803b158015610c9457600080fd5b505af1158015610ca8573d6000803e3d6000fd5b505050506040513d601f19601f82011682018060405250810190610ccc9190611111565b507f8daf503382665d950e449b86172be5222275c90f4ddf69c29fdaa8237a562a6d33600160009054906101000a900473ffffffffffffffffffffffffffffffffffffffff1683600254604051610d26949392919061135d565b60405180910390a150565b6000600660008473ffffffffffffffffffffffffffffffffffffffff1673ffffffffffffffffffffffffffffffffffffffff16815260200190815260200160002054905081811015610db8576040517f08c379a0000000000000000000000000000000000000000000000000000000008152600401610daf90611483565b60405180910390fd5b813073ffffffffffffffffffffffffffffffffffffffff16311015610ddc57600080fd5b6000808473ffffffffffffffffffffffffffffffffffffffff1684604051610e03906112bf565b60006040518083038185875af1925050503d8060008114610e40576040519150601f19603f3d011682016040523d82523d6000602084013e610e45565b606091505b509150915081610e8a576040517f08c379a0000000000000000000000000000000000000000000000000000000008152600401610e8190611423565b60405180910390fd5b8383610e9691906115c6565b600660008773ffffffffffffffffffffffffffffffffffffffff1673ffffffffffffffffffffffffffffffffffffffff168152602001908152602001600020819055506000600660008773ffffffffffffffffffffffffffffffffffffffff1673ffffffffffffffffffffffffffffffffffffffff168152602001908152602001600020541415610f7a576000600860008773ffffffffffffffffffffffffffffffffffffffff1673ffffffffffffffffffffffffffffffffffffffff16815260200190815260200160002060006101000a81548160ff0219169083151502179055505b7f4c5a68df1e54dd796657dc5832c88515a36dc92548af9951a0ef38dd61a3322e85600160009054906101000a900473ffffffffffffffffffffffffffffffffffffffff1686604051610fcf939291906112ef565b60405180910390a15050505050565b600160009054906101000a900473ffffffffffffffffffffffffffffffffffffffff1681565b6005818154811061101457600080fd5b906000526020600020016000915054906101000a900473ffffffffffffffffffffffffffffffffffffffff1681565b600081359050611052816118c7565b92915050565b600081359050611067816118de565b92915050565b60008151905061107c816118f5565b92915050565b6000813590506110918161190c565b92915050565b6000815190506110a68161190c565b92915050565b6000602082840312156110be57600080fd5b60006110cc84828501611043565b91505092915050565b600080604083850312156110e857600080fd5b60006110f685828601611058565b925050602061110785828601611082565b9150509250929050565b60006020828403121561112357600080fd5b60006111318482850161106d565b91505092915050565b60006020828403121561114c57600080fd5b600061115a84828501611082565b91505092915050565b60006020828403121561117557600080fd5b600061118384828501611097565b91505092915050565b61119581611654565b82525050565b6111a4816115fa565b82525050565b6111b38161161e565b82525050565b6111c281611666565b82525050565b60006111d3826114be565b6111dd81856114d4565b93506111ed8185602086016116ae565b6111f6816117e9565b840191505092915050565b600061120e6018836114d4565b9150611219826117fa565b602082019050919050565b60006112316000836114c9565b915061123c82611823565b600082019050919050565b60006112546014836114d4565b915061125f82611826565b602082019050919050565b60006112776012836114d4565b91506112828261184f565b602082019050919050565b600061129a6023836114d4565b91506112a582611878565b604082019050919050565b6112b98161164a565b82525050565b60006112ca82611224565b9150819050919050565b60006020820190506112e9600083018461119b565b92915050565b6000606082019050611304600083018661118c565b611311602083018561119b565b61131e60408301846112b0565b949350505050565b600060608201905061133b600083018661119b565b611348602083018561119b565b61135560408301846112b0565b949350505050565b6000608082019050611372600083018761119b565b61137f602083018661119b565b61138c60408301856112b0565b61139960608301846112b0565b95945050505050565b60006040820190506113b7600083018561119b565b6113c460208301846112b0565b9392505050565b60006020820190506113e060008301846111aa565b92915050565b60006020820190506113fb60008301846111b9565b92915050565b6000602082019050818103600083015261141b81846111c8565b905092915050565b6000602082019050818103600083015261143c81611201565b9050919050565b6000602082019050818103600083015261145c81611247565b9050919050565b6000602082019050818103600083015261147c8161126a565b9050919050565b6000602082019050818103600083015261149c8161128d565b9050919050565b60006020820190506114b860008301846112b0565b92915050565b600081519050919050565b600081905092915050565b600082825260208201905092915050565b60006114f08261164a565b91506114fb8361164a565b9250827fffffffffffffffffffffffffffffffffffffffffffffffffffffffffffffffff038211156115305761152f61175c565b5b828201905092915050565b60006115468261164a565b91506115518361164a565b9250826115615761156061178b565b5b828204905092915050565b60006115778261164a565b91506115828361164a565b9250817fffffffffffffffffffffffffffffffffffffffffffffffffffffffffffffffff04831182151516156115bb576115ba61175c565b5b828202905092915050565b60006115d18261164a565b91506115dc8361164a565b9250828210156115ef576115ee61175c565b5b828203905092915050565b60006116058261162a565b9050919050565b60006116178261162a565b9050919050565b60008115159050919050565b600073ffffffffffffffffffffffffffffffffffffffff82169050919050565b6000819050919050565b600061165f8261168a565b9050919050565b600061167182611678565b9050919050565b60006116838261162a565b9050919050565b60006116958261169c565b9050919050565b60006116a78261162a565b9050919050565b60005b838110156116cc5780820151818401526020810190506116b1565b838111156116db576000848401525b50505050565b600060028204905060018216806116f957607f821691505b6020821081141561170d5761170c6117ba565b5b50919050565b600061171e8261164a565b91507fffffffffffffffffffffffffffffffffffffffffffffffffffffffffffffffff8214156117515761175061175c565b5b600182019050919050565b7f4e487b7100000000000000000000000000000000000000000000000000000000600052601160045260246000fd5b7f4e487b7100000000000000000000000000000000000000000000000000000000600052601260045260246000fd5b7f4e487b7100000000000000000000000000000000000000000000000000000000600052602260045260246000fd5b6000601f19601f8301169050919050565b7f4661696c656420746f2077697468647261772045746865720000000000000000600082015250565b50565b7f63616c6c6572206d757374206265206f776e6572000000000000000000000000600082015250565b7f616d6f756e742063616e6e6f7420626520300000000000000000000000000000600082015250565b7f43616e6e6f7420756e7374616b65206d6f726520657468207468616e2073746160008201527f6b65640000000000000000000000000000000000000000000000000000000000602082015250565b6118d0816115fa565b81146118db57600080fd5b50565b6118e78161160c565b81146118f257600080fd5b50565b6118fe8161161e565b811461190957600080fd5b50565b6119158161164a565b811461192057600080fd5b5056fea2646970667358221220078975c3b7b57d33e2815de801bfc2c3feb854bdae13ab92bdef02ffd21c237464736f6c63430008030033",
  "immutableReferences": {},
  "source": "// SPDX-License-Identifier: MIT\r\n\r\npragma solidity ^0.8.3;\r\n\r\nimport \"./ThesisToken.sol\";\r\n\r\n/// @title Ethwap Contract\r\n/// @author Timur Burkholz\r\n/// @notice This contract is implemented for a thesis, used for trading Thesis Token and Staking\r\n/// @custom:experimental This is an experimental contract.\r\ncontract EthSwap {\r\n    string public name = \"EthSwap for Token\";\r\n    ThesisToken public token;\r\n    uint256 public rate = 100;\r\n    uint256 public stakingRate = 10;\r\n\r\n    address public owner;\r\n\r\n    // address of staking addresses\r\n    address[] public stakers;\r\n\r\n    // the stalking balance for a specific User\r\n    mapping(address => uint256) public stakingBalance;\r\n\r\n    // check if the address has Staked\r\n    mapping(address => bool) public hasStaked;\r\n\r\n    mapping(address => bool) public isStaking;\r\n\r\n    // Event submitted when Token bought\r\n    event TokenPurchased(\r\n        address account,\r\n        address token,\r\n        uint256 amount,\r\n        uint256 rate\r\n    );\r\n\r\n    // Event submitted when Token sold\r\n    event TokensSold(\r\n        address account,\r\n        address token,\r\n        uint256 amount,\r\n        uint256 rate\r\n    );\r\n\r\n    // Event when Staking desposit\r\n    event TokenStaked(address account, address token, uint256 ethAmount);\r\n\r\n    // Event when Stkaing payed out\r\n    event TokenUnstaked(address account, address token, uint256 ethAmount);\r\n\r\n    \r\n    constructor(ThesisToken _token) public {\r\n        token = _token;\r\n        owner = msg.sender;\r\n    }\r\n\r\n    /// @notice Here ThesisToken is paid with Ether for a specific rate\r\n    /// @dev triggers TokenPurchased event\r\n    function buyTokens() public payable {\r\n        // redemption rate = # of tokens they receive for 1 ether\r\n        // Amount of Ethereum * Redemption rate\r\n        // Calculate the number of tokens to buy -> msg.value is the amount of ether that is sended\r\n        uint256 tokenAmount = msg.value * rate;\r\n\r\n        // integrate a require -> check if ethSwap balance of thesis tokens is enough -> this is the address of the ethSwap Contract\r\n        // require ethSwap have enough tokens\r\n        require(token.balanceOf(address(this)) >= tokenAmount);\r\n\r\n        token.transfer(msg.sender, tokenAmount);\r\n\r\n        // trigger Event that tokens were purchased\r\n        emit TokenPurchased(msg.sender, address(token), tokenAmount, rate);\r\n    }\r\n\r\n    /// @notice here ThesisToken is sold for Ether for a specific rate\r\n    /// @param _amount: Amount of ether sent from user\r\n    /// @dev triggers TokenSold event\r\n    function sellTokens(uint256 _amount) public {\r\n        // User can't sell more tokens than they have\r\n        require(token.balanceOf(msg.sender) >= _amount);\r\n\r\n        // calculate the amount of Ether\r\n        uint256 etherAmount = _amount / rate;\r\n\r\n        // require that EthSwap has enough Ether\r\n        require(address(this).balance >= etherAmount);\r\n\r\n        // Perfom sale -> transfer Thesis Tokens back to EthSwap -> again use the address of the contract -> this\r\n        // we can not use the simple transfer function on an ERC-20 Token\r\n        // instead we have to use the transferFrom function -> to allow transfer from an address to EthSwap\r\n        token.transferFrom(msg.sender, address(this), _amount);\r\n        // this will also trigger approve function of the ERC-20 Token -> needs to be called inside a test\r\n\r\n        // -> we use transfer for native Ethereum\r\n        payable(msg.sender).transfer(etherAmount);\r\n\r\n        // emit an Event\r\n        emit TokensSold(msg.sender, address(token), _amount, rate);\r\n    }\r\n\r\n    /// @notice here Ether is staked, Staking balance of investor will be saved\r\n    /// @dev triggers TokenStaked event\r\n    function stakeTokens() public payable {\r\n        // require amount to stake is greater than 0\r\n        require(msg.value > 0, \"amount cannot be 0\");\r\n\r\n        // update staking balance\r\n        stakingBalance[msg.sender] = stakingBalance[msg.sender] + msg.value;\r\n\r\n        // add user to stakers array if they haven't staked already\r\n        if (!hasStaked[msg.sender]) {\r\n            // the stakers array should only contain addresses once\r\n            stakers.push(msg.sender);\r\n        }\r\n\r\n        // update staking status\r\n        hasStaked[msg.sender] = true;\r\n        isStaking[msg.sender] = true;\r\n        emit TokenStaked(msg.sender, address(token), msg.value);\r\n    }\r\n\r\n    /// @notice here Thesis tokens are issued. Investor will get their reward\r\n    /// @dev can only be called from contract owner\r\n    function issueToken() public {\r\n        // this functions should only be triggered by the owner of the smart contract\r\n        require(msg.sender == owner, \"caller must be owner\");\r\n\r\n        // loop through stakers array\r\n        for (uint256 i = 0; i < stakers.length; i++) {\r\n            address recipient = stakers[i];\r\n            // for each staker get the balance of the staked thesis Tokens -> stakingBalance\r\n            uint256 balance = stakingBalance[recipient];\r\n            if (balance > 0) {\r\n                // send them the same amount of thesis Tokens\r\n                uint256 amount = balance * stakingRate;\r\n                token.transfer(recipient, amount);\r\n            }\r\n        }\r\n    }\r\n\r\n    /// @notice here Ether is unstaked, investor will receive his invested ether\r\n    /// @param _to: payable address of investor\r\n    /// @param _amount: requested ether that investor wants to receive back\r\n    /// @dev triggers TokenUnstaked event\r\n    function unstakeTokens(address payable _to, uint256 _amount) public {\r\n        \r\n        // require amount greater than 0\r\n        uint256 balance = stakingBalance[_to];\r\n        require(balance >= _amount, \"Cannot unstake more eth than staked\");\r\n\r\n        // require that EthSwap has enough Ether\r\n        require(address(this).balance >= _amount);\r\n\r\n        // transfer eth to this contract for staking\r\n        (bool succeed, bytes memory data) = _to.call{value: _amount}(\"\");\r\n        require(succeed, \"Failed to withdraw Ether\");\r\n\r\n        // reset the staking balance\r\n        stakingBalance[_to] = balance - _amount;\r\n\r\n        if (stakingBalance[_to] == 0) {\r\n            // update staking status\r\n            isStaking[_to] = false;\r\n        }\r\n\r\n        emit TokenUnstaked(_to, address(token), _amount);\r\n    }\r\n}\r\n",
  "sourcePath": "C:\\uni\\THESIS(Master)\\Project\\smart_contracts\\src\\contracts\\EthSwap.sol",
  "compiler": {
    "name": "solc",
    "version": "0.8.3+commit.8d00100c.Emscripten.clang"
  },
  "schemaVersion": "3.4.3",
  "updatedAt": "2022-01-16T18:04:28.182Z",
  "networkType": "ethereum",
  "devdoc": {
    "author": "Timur Burkholz",
    "custom:experimental": "This is an experimental contract.",
    "kind": "dev",
    "methods": {
      "buyTokens()": {
        "details": "triggers TokenPurchased event"
      },
      "issueToken()": {
        "details": "can only be called from contract owner"
      },
      "sellTokens(uint256)": {
        "details": "triggers TokenSold event",
        "params": {
          "_amount": ": Amount of ether sent from user"
        }
      },
      "stakeTokens()": {
        "details": "triggers TokenStaked event"
      },
      "unstakeTokens(address,uint256)": {
        "details": "triggers TokenUnstaked event",
        "params": {
          "_amount": ": requested ether that investor wants to receive back",
          "_to": ": payable address of investor"
        }
      }
    },
    "title": "Ethwap Contract",
    "version": 1
  },
  "userdoc": {
    "kind": "user",
    "methods": {
      "buyTokens()": {
        "notice": "Here ThesisToken is paid with Ether for a specific rate"
      },
      "issueToken()": {
        "notice": "here Thesis tokens are issued. Investor will get their reward"
      },
      "sellTokens(uint256)": {
        "notice": "here ThesisToken is sold for Ether for a specific rate"
      },
      "stakeTokens()": {
        "notice": "here Ether is staked, Staking balance of investor will be saved"
      },
      "unstakeTokens(address,uint256)": {
        "notice": "here Ether is unstaked, investor will receive his invested ether"
      }
    },
    "notice": "This contract is implemented for a thesis, used for trading Thesis Token and Staking",
    "version": 1
  }
}