{
  "contractName": "ThesisToken",
  "abi": [
    {
      "inputs": [],
      "stateMutability": "nonpayable",
      "type": "constructor"
    },
    {
      "anonymous": false,
      "inputs": [
        {
          "indexed": true,
          "internalType": "address",
          "name": "owner",
          "type": "address"
        },
        {
          "indexed": true,
          "internalType": "address",
          "name": "spender",
          "type": "address"
        },
        {
          "indexed": false,
          "internalType": "uint256",
          "name": "value",
          "type": "uint256"
        }
      ],
      "name": "Approval",
      "type": "event"
    },
    {
      "anonymous": false,
      "inputs": [
        {
          "indexed": true,
          "internalType": "address",
          "name": "from",
          "type": "address"
        },
        {
          "indexed": true,
          "internalType": "address",
          "name": "to",
          "type": "address"
        },
        {
          "indexed": false,
          "internalType": "uint256",
          "name": "value",
          "type": "uint256"
        }
      ],
      "name": "Transfer",
      "type": "event"
    },
    {
      "inputs": [
        {
          "internalType": "address",
          "name": "",
          "type": "address"
        },
        {
          "internalType": "address",
          "name": "",
          "type": "address"
        }
      ],
      "name": "_allowance",
      "outputs": [
        {
          "internalType": "uint256",
          "name": "",
          "type": "uint256"
        }
      ],
      "stateMutability": "view",
      "type": "function",
      "constant": true
    },
    {
      "inputs": [
        {
          "internalType": "address",
          "name": "",
          "type": "address"
        }
      ],
      "name": "_balanceOf",
      "outputs": [
        {
          "internalType": "uint256",
          "name": "",
          "type": "uint256"
        }
      ],
      "stateMutability": "view",
      "type": "function",
      "constant": true
    },
    {
      "inputs": [],
      "name": "_totalSupply",
      "outputs": [
        {
          "internalType": "uint256",
          "name": "",
          "type": "uint256"
        }
      ],
      "stateMutability": "view",
      "type": "function",
      "constant": true
    },
    {
      "inputs": [],
      "name": "decimals",
      "outputs": [
        {
          "internalType": "uint8",
          "name": "",
          "type": "uint8"
        }
      ],
      "stateMutability": "view",
      "type": "function",
      "constant": true
    },
    {
      "inputs": [],
      "name": "name",
      "outputs": [
        {
          "internalType": "string",
          "name": "",
          "type": "string"
        }
      ],
      "stateMutability": "view",
      "type": "function",
      "constant": true
    },
    {
      "inputs": [],
      "name": "symbol",
      "outputs": [
        {
          "internalType": "string",
          "name": "",
          "type": "string"
        }
      ],
      "stateMutability": "view",
      "type": "function",
      "constant": true
    },
    {
      "inputs": [
        {
          "internalType": "address",
          "name": "_to",
          "type": "address"
        },
        {
          "internalType": "uint256",
          "name": "_value",
          "type": "uint256"
        }
      ],
      "name": "transfer",
      "outputs": [
        {
          "internalType": "bool",
          "name": "success",
          "type": "bool"
        }
      ],
      "stateMutability": "nonpayable",
      "type": "function"
    },
    {
      "inputs": [
        {
          "internalType": "address",
          "name": "_spender",
          "type": "address"
        },
        {
          "internalType": "uint256",
          "name": "_value",
          "type": "uint256"
        }
      ],
      "name": "approve",
      "outputs": [
        {
          "internalType": "bool",
          "name": "success",
          "type": "bool"
        }
      ],
      "stateMutability": "nonpayable",
      "type": "function"
    },
    {
      "inputs": [
        {
          "internalType": "address",
          "name": "_from",
          "type": "address"
        },
        {
          "internalType": "address",
          "name": "_to",
          "type": "address"
        },
        {
          "internalType": "uint256",
          "name": "_value",
          "type": "uint256"
        }
      ],
      "name": "transferFrom",
      "outputs": [
        {
          "internalType": "bool",
          "name": "success",
          "type": "bool"
        }
      ],
      "stateMutability": "nonpayable",
      "type": "function"
    },
    {
      "inputs": [],
      "name": "totalSupply",
      "outputs": [
        {
          "internalType": "uint256",
          "name": "",
          "type": "uint256"
        }
      ],
      "stateMutability": "view",
      "type": "function",
      "constant": true
    },
    {
      "inputs": [
        {
          "internalType": "address",
          "name": "account",
          "type": "address"
        }
      ],
      "name": "balanceOf",
      "outputs": [
        {
          "internalType": "uint256",
          "name": "",
          "type": "uint256"
        }
      ],
      "stateMutability": "view",
      "type": "function",
      "constant": true
    },
    {
      "inputs": [
        {
          "internalType": "address",
          "name": "owner",
          "type": "address"
        },
        {
          "internalType": "address",
          "name": "spender",
          "type": "address"
        }
      ],
      "name": "allowance",
      "outputs": [
        {
          "internalType": "uint256",
          "name": "",
          "type": "uint256"
        }
      ],
      "stateMutability": "view",
      "type": "function",
      "constant": true
    }
  ],
  "bytecode": "0x60806040526040518060400160405280600c81526020017f54686573697320546f6b656e0000000000000000000000000000000000000000815250600090805190602001906200005192919062000124565b506040518060400160405280600481526020017f5448455300000000000000000000000000000000000000000000000000000000815250600190805190602001906200009f92919062000124565b5069d3c21bcecceda10000006002556012600360006101000a81548160ff021916908360ff160217905550348015620000d757600080fd5b50600254600460003373ffffffffffffffffffffffffffffffffffffffff1673ffffffffffffffffffffffffffffffffffffffff1681526020019081526020016000208190555062000239565b8280546200013290620001d4565b90600052602060002090601f016020900481019282620001565760008555620001a2565b82601f106200017157805160ff1916838001178555620001a2565b82800160010185558215620001a2579182015b82811115620001a157825182559160200191906001019062000184565b5b509050620001b19190620001b5565b5090565b5b80821115620001d0576000816000905550600101620001b6565b5090565b60006002820490506001821680620001ed57607f821691505b602082108114156200020457620002036200020a565b5b50919050565b7f4e487b7100000000000000000000000000000000000000000000000000000000600052602260045260246000fd5b610df280620002496000396000f3fe608060405234801561001057600080fd5b50600436106100b45760003560e01c806370a082311161007157806370a082311461019157806395d89b41146101c1578063a9059cbb146101df578063cca3e8321461020f578063dd336c121461023f578063dd62ed3e1461026f576100b4565b806306fdde03146100b9578063095ea7b3146100d757806318160ddd1461010757806323b872dd14610125578063313ce567146101555780633eaaf86b14610173575b600080fd5b6100c161029f565b6040516100ce9190610b67565b60405180910390f35b6100f160048036038101906100ec9190610aaa565b61032d565b6040516100fe9190610b4c565b60405180910390f35b61010f61041f565b60405161011c9190610b89565b60405180910390f35b61013f600480360381019061013a9190610a5b565b610429565b60405161014c9190610b4c565b60405180910390f35b61015d6106af565b60405161016a9190610ba4565b60405180910390f35b61017b6106c2565b6040516101889190610b89565b60405180910390f35b6101ab60048036038101906101a691906109f6565b6106c8565b6040516101b89190610b89565b60405180910390f35b6101c9610711565b6040516101d69190610b67565b60405180910390f35b6101f960048036038101906101f49190610aaa565b61079f565b6040516102069190610b4c565b60405180910390f35b610229600480360381019061022491906109f6565b610908565b6040516102369190610b89565b60405180910390f35b61025960048036038101906102549190610a1f565b610920565b6040516102669190610b89565b60405180910390f35b61028960048036038101906102849190610a1f565b610945565b6040516102969190610b89565b60405180910390f35b600080546102ac90610ced565b80601f01602080910402602001604051908101604052809291908181526020018280546102d890610ced565b80156103255780601f106102fa57610100808354040283529160200191610325565b820191906000526020600020905b81548152906001019060200180831161030857829003601f168201915b505050505081565b600081600560003373ffffffffffffffffffffffffffffffffffffffff1673ffffffffffffffffffffffffffffffffffffffff16815260200190815260200160002060008573ffffffffffffffffffffffffffffffffffffffff1673ffffffffffffffffffffffffffffffffffffffff168152602001908152602001600020819055508273ffffffffffffffffffffffffffffffffffffffff163373ffffffffffffffffffffffffffffffffffffffff167f8c5be1e5ebec7d5bd14f71427d1e84f3dd0314c0f7b2291e5b200ac8c7c3b9258460405161040d9190610b89565b60405180910390a36001905092915050565b6000600254905090565b6000600460008573ffffffffffffffffffffffffffffffffffffffff1673ffffffffffffffffffffffffffffffffffffffff1681526020019081526020016000205482111561047757600080fd5b600560008573ffffffffffffffffffffffffffffffffffffffff1673ffffffffffffffffffffffffffffffffffffffff16815260200190815260200160002060003373ffffffffffffffffffffffffffffffffffffffff1673ffffffffffffffffffffffffffffffffffffffff1681526020019081526020016000205482111561050057600080fd5b81600460008673ffffffffffffffffffffffffffffffffffffffff1673ffffffffffffffffffffffffffffffffffffffff168152602001908152602001600020600082825461054f9190610c31565b9250508190555081600460008573ffffffffffffffffffffffffffffffffffffffff1673ffffffffffffffffffffffffffffffffffffffff16815260200190815260200160002060008282546105a59190610bdb565b9250508190555081600560008673ffffffffffffffffffffffffffffffffffffffff1673ffffffffffffffffffffffffffffffffffffffff16815260200190815260200160002060003373ffffffffffffffffffffffffffffffffffffffff1673ffffffffffffffffffffffffffffffffffffffff16815260200190815260200160002060008282546106389190610c31565b925050819055508273ffffffffffffffffffffffffffffffffffffffff168473ffffffffffffffffffffffffffffffffffffffff167fddf252ad1be2c89b69c2b068fc378daa952ba7f163c4a11628f55a4df523b3ef8460405161069c9190610b89565b60405180910390a3600190509392505050565b600360009054906101000a900460ff1681565b60025481565b6000600460008373ffffffffffffffffffffffffffffffffffffffff1673ffffffffffffffffffffffffffffffffffffffff168152602001908152602001600020549050919050565b6001805461071e90610ced565b80601f016020809104026020016040519081016040528092919081815260200182805461074a90610ced565b80156107975780601f1061076c57610100808354040283529160200191610797565b820191906000526020600020905b81548152906001019060200180831161077a57829003601f168201915b505050505081565b600081600460003373ffffffffffffffffffffffffffffffffffffffff1673ffffffffffffffffffffffffffffffffffffffff1681526020019081526020016000205410156107ed57600080fd5b81600460003373ffffffffffffffffffffffffffffffffffffffff1673ffffffffffffffffffffffffffffffffffffffff168152602001908152602001600020600082825461083c9190610c31565b9250508190555081600460008573ffffffffffffffffffffffffffffffffffffffff1673ffffffffffffffffffffffffffffffffffffffff16815260200190815260200160002060008282546108929190610bdb565b925050819055508273ffffffffffffffffffffffffffffffffffffffff163373ffffffffffffffffffffffffffffffffffffffff167fddf252ad1be2c89b69c2b068fc378daa952ba7f163c4a11628f55a4df523b3ef846040516108f69190610b89565b60405180910390a36001905092915050565b60046020528060005260406000206000915090505481565b6005602052816000526040600020602052806000526040600020600091509150505481565b6000600560008473ffffffffffffffffffffffffffffffffffffffff1673ffffffffffffffffffffffffffffffffffffffff16815260200190815260200160002060008373ffffffffffffffffffffffffffffffffffffffff1673ffffffffffffffffffffffffffffffffffffffff16815260200190815260200160002054905092915050565b6000813590506109db81610d8e565b92915050565b6000813590506109f081610da5565b92915050565b600060208284031215610a0857600080fd5b6000610a16848285016109cc565b91505092915050565b60008060408385031215610a3257600080fd5b6000610a40858286016109cc565b9250506020610a51858286016109cc565b9150509250929050565b600080600060608486031215610a7057600080fd5b6000610a7e868287016109cc565b9350506020610a8f868287016109cc565b9250506040610aa0868287016109e1565b9150509250925092565b60008060408385031215610abd57600080fd5b6000610acb858286016109cc565b9250506020610adc858286016109e1565b9150509250929050565b610aef81610c77565b82525050565b6000610b0082610bbf565b610b0a8185610bca565b9350610b1a818560208601610cba565b610b2381610d7d565b840191505092915050565b610b3781610ca3565b82525050565b610b4681610cad565b82525050565b6000602082019050610b616000830184610ae6565b92915050565b60006020820190508181036000830152610b818184610af5565b905092915050565b6000602082019050610b9e6000830184610b2e565b92915050565b6000602082019050610bb96000830184610b3d565b92915050565b600081519050919050565b600082825260208201905092915050565b6000610be682610ca3565b9150610bf183610ca3565b9250827fffffffffffffffffffffffffffffffffffffffffffffffffffffffffffffffff03821115610c2657610c25610d1f565b5b828201905092915050565b6000610c3c82610ca3565b9150610c4783610ca3565b925082821015610c5a57610c59610d1f565b5b828203905092915050565b6000610c7082610c83565b9050919050565b60008115159050919050565b600073ffffffffffffffffffffffffffffffffffffffff82169050919050565b6000819050919050565b600060ff82169050919050565b60005b83811015610cd8578082015181840152602081019050610cbd565b83811115610ce7576000848401525b50505050565b60006002820490506001821680610d0557607f821691505b60208210811415610d1957610d18610d4e565b5b50919050565b7f4e487b7100000000000000000000000000000000000000000000000000000000600052601160045260246000fd5b7f4e487b7100000000000000000000000000000000000000000000000000000000600052602260045260246000fd5b6000601f19601f8301169050919050565b610d9781610c65565b8114610da257600080fd5b50565b610dae81610ca3565b8114610db957600080fd5b5056fea2646970667358221220ccd12ea82ad968020ce77ba75e5b124ec5d34a8750a81b770b368474e0d1039164736f6c63430008030033",
  "immutableReferences": {},
  "source": "// SPDX-License-Identifier: MIT\npragma solidity ^0.8.3;\n\nimport \"./IERC20.sol\";\n\n\n/// @title Thesis Contract\n/// @author Timur Burkholz\n/// @notice This contract is implemented for a thesis, custom token used in ThesisSwap contract\n/// @custom:experimental This is an experimental contract.\ncontract ThesisToken is IERC20 {\n    string  public name = \"Thesis Token\";\n    string  public symbol = \"THES\";\n    uint256 public _totalSupply = 1000000000000000000000000; // 1 million tokens\n    uint8   public decimals = 18;\n\n\n    // Mapping of balances of addresses, that own tokens\n    mapping(address => uint256) public _balanceOf;\n\n    // allowance of a specific use to send his funds\n    mapping(address => mapping(address => uint256)) public _allowance;\n\n    constructor() public {\n        _balanceOf[msg.sender] = _totalSupply;\n    }\n\n    /// @notice here Thesis token will be transfered from sender to receiver\n    /// @param _to: payable address of receiver\n    /// @param _value: amount of thesis token\n    /// @dev triggers Transfer event\n    /// @return success (boolean)\n    function transfer(address _to, uint256 _value) public override returns (bool success) {\n        require(_balanceOf[msg.sender] >= _value);\n        _balanceOf[msg.sender] -= _value;\n        _balanceOf[_to] += _value;\n        emit Transfer(msg.sender, _to, _value);\n        return true;\n    }\n\n    /// @notice here a sender approve the transfer of thesis tokens (used for handling in ThesisSwap)\n    /// @param _spender: payable address of receiver\n    /// @param _value: amount of thesis token\n    /// @dev triggers Approval event#\n    /// @return success (boolean)\n    function approve(address _spender, uint256 _value) public override returns (bool success) {\n        _allowance[msg.sender][_spender] = _value;\n        emit Approval(msg.sender, _spender, _value);\n        return true;\n    }\n\n    /// @notice here Thesis token will be transfered from sender to receiver, transfer needs to be approved\n    /// @param _from: payable address of sender\n    /// @param _to: payable address of receiver\n    /// @param _value: amount of thesis token\n    /// @dev triggers Transfer event, used in ThesisSwap\n    /// @return success (boolean)\n    function transferFrom(address _from, address _to, uint256 _value) public override returns (bool success) {\n        require(_value <= _balanceOf[_from]);\n        // allowance for sending of thesis tokens is required\n        require(_value <= _allowance[_from][msg.sender]);\n        _balanceOf[_from] -= _value;\n        _balanceOf[_to] += _value;\n        _allowance[_from][msg.sender] -= _value;\n        emit Transfer(_from, _to, _value);\n        return true;\n    }\n\n    /// @notice get totalSupply of thesis Token\n    /// @return uint256 totalSupply\n    function totalSupply() public view virtual override returns (uint256) {\n        return _totalSupply;\n    }\n\n    /// @notice get balance of specific address\n    /// @param account: address\n    /// @return unit256 balance of this accound (address)\n    function balanceOf(address account) public view virtual override returns (uint256) {\n        return _balanceOf[account];\n    }\n\n    /// @notice get the allowance of an owner for a specific spender\n    /// @param owner: address of owner of the tokens to spend\n    /// @param spender: address a spender should be allowed to spend owners tokens\n    /// @return uint256 allowoance amount of tokens for a spender of the owners funds\n    function allowance(address owner, address spender) public view virtual override returns (uint256) {\n        return _allowance[owner][spender];\n    }\n\n}",
  "sourcePath": "/Users/timucini/work/Defi-Project/DeFi_Application/smart_contracts/src/contracts/ThesisToken.sol",
  "compiler": {
    "name": "solc",
    "version": "0.8.3+commit.8d00100c.Emscripten.clang"
  },
  "schemaVersion": "3.4.6",
  "updatedAt": "2022-03-30T12:48:38.451Z",
  "networkType": "ethereum",
  "devdoc": {
    "author": "Timur Burkholz",
    "custom:experimental": "This is an experimental contract.",
    "kind": "dev",
    "methods": {
      "allowance(address,address)": {
        "params": {
          "owner": ": address of owner of the tokens to spend",
          "spender": ": address a spender should be allowed to spend owners tokens"
        },
        "returns": {
          "_0": "uint256 allowoance amount of tokens for a spender of the owners funds"
        }
      },
      "approve(address,uint256)": {
        "details": "triggers Approval event#",
        "params": {
          "_spender": ": payable address of receiver",
          "_value": ": amount of thesis token"
        },
        "returns": {
          "success": "(boolean)"
        }
      },
      "balanceOf(address)": {
        "params": {
          "account": ": address"
        },
        "returns": {
          "_0": "unit256 balance of this accound (address)"
        }
      },
      "totalSupply()": {
        "returns": {
          "_0": "uint256 totalSupply"
        }
      },
      "transfer(address,uint256)": {
        "details": "triggers Transfer event",
        "params": {
          "_to": ": payable address of receiver",
          "_value": ": amount of thesis token"
        },
        "returns": {
          "success": "(boolean)"
        }
      },
      "transferFrom(address,address,uint256)": {
        "details": "triggers Transfer event, used in ThesisSwap",
        "params": {
          "_from": ": payable address of sender",
          "_to": ": payable address of receiver",
          "_value": ": amount of thesis token"
        },
        "returns": {
          "success": "(boolean)"
        }
      }
    },
    "title": "Thesis Contract",
    "version": 1
  },
  "userdoc": {
    "kind": "user",
    "methods": {
      "allowance(address,address)": {
        "notice": "get the allowance of an owner for a specific spender"
      },
      "approve(address,uint256)": {
        "notice": "here a sender approve the transfer of thesis tokens (used for handling in ThesisSwap)"
      },
      "balanceOf(address)": {
        "notice": "get balance of specific address"
      },
      "totalSupply()": {
        "notice": "get totalSupply of thesis Token"
      },
      "transfer(address,uint256)": {
        "notice": "here Thesis token will be transfered from sender to receiver"
      },
      "transferFrom(address,address,uint256)": {
        "notice": "here Thesis token will be transfered from sender to receiver, transfer needs to be approved"
      }
    },
    "notice": "This contract is implemented for a thesis, custom token used in ThesisSwap contract",
    "version": 1
  }
}